:020000043000CA
:10200000000034207D2400300D25003011250030E3
:1020100009250030092500300925003000000000A6
:1020200000000000000000000000000021760130E8
:102030000925003000000000B1760130FDC30030FA
:102040002125003025250030292500302D250030A0
:102050003125003035250030392500303D25003050
:102060004125003045250030492500304D25003000
:102070005125003055250030592500305D250030B0
:102080006125003009250030092500300925003080
:1020900065250030692500306D2500307125003040
:1020A00075250030792500307D25003081250030F0
:1020B00085250030892500308D25003091250030A0
:1020C00095250030992500309D250030A125003050
:1020D000A5250030A9250030AD250030B125003000
:1020E000B5250030B9250030BD250030C1250030B0
:1020F000C5250030C9250030CD250030D125003060
:10210000D5250030D92500300925003009250030BB
:10211000092500300925003009250030E1C80030CC
:102120000925003009250030DD250030E12500308B
:10213000EDC80030092500300925003009250030A0
:102140000925003009250030092500300925003017
:102150000925003009250030092500300925003007
:10216000092500300925003009250030E52500301B
:10217000E9250030ED250030F1250030F52500304F
:10218000F9250030FD2500300126003009250030FA
:1021900009250030092500300925003009250030C7
:1021A00009250030092500300925003009250030B7
:1021B00009250030092500300925003009250030A7
:1021C000092500300526003009250030092500309A
:1021D000092500300925003009250030E9C8003004
:1021E0000925003009250030092500300925003077
:1021F0000925003009250030092600300D26003061
:102200000925003009250030092500300925003056
:102210000925003009250030092500300925003046
:102220000925003009250030092500300925003036
:102230000925003009250030092500300925003026
:102240000925003009250030112600301526003000
:1022500009250030192600301D26003009250030E0
:10226000092500302126003025260030292600309F
:102270002D2600303126003035260030092500306B
:1022800009250030092500300925003009250030D6
:1022900009250030092500300925003009250030C6
:1022A00009250030092500300925003009250030B6
:1022B00009250030092500300925003009250030A6
:1022C0000925003009250030092500300925003096
:1022D0000925003009250030092500300925003086
:1022E0000925003009250030092500300925003076
:1022F0000925003009250030092500300925003066
:102300000925003009250030092500300925003055
:102310000925003009250030092500300925003045
:102320000925003009250030092500300925003035
:102330000925003009250030092500300925003025
:102340000925003009250030092500300925003015
:102350000925003009250030092500300925003005
:10236000392600303D260030412600304526003019
:1023700009250030092500300925003009250030E5
:102380000925003009250030492600304D2600304F
:10239000512600305526003009250030092500302F
:1023A000592600305D26003009250030092500300F
:1023B00009250030092500300925003009250030A5
:1023C0000925003009250030092500300925003095
:1023D0000925003009250030092500300925003085
:1023E0000925003009250030092500300925003075
:1023F000092500300925003009250030FFFFFFFFC7
:10240000A3F5803A704700BF174B002B08BF134B52
:102410009D46FFF7F5FF00218B460F461348144AEF
:10242000121A51F0B9FD0E4B002B00D098470D4BFE
:10243000002B00D098470020002104000D000D481B
:10244000002802D00C4851F039FE51F0F7FD200071
:10245000290005F067FE51F0DBFB00BF000008001B
:10246000000000000000000000003420280200806E
:10247000283D0080BD4005308D40053072B61648BD
:10248000164901600A6882F3088815488047154993
:10249000154A164B9A42BEBF51F8040B42F8040B82
:1024A000F8E7134A134B9A42BEBF51F8040B42F8A7
:1024B000040BF8E7104B00209A42BCBF42F8040B13
:1024C000FAE70E490E4A00209142BCBF41F8040BC6
:1024D000FAE762B60B48804708ED00E000200030C4
:1024E00075160130704A063000000080240200801A
:1024F0000000008300000083000020832802008089
:10250000283D008009240030FFF7FEBF54480047F3
:10251000544800475448004754480047544800472F
:10252000544800475448004754480047544800471F
:10253000544800475448004754480047544800470F
:1025400054480047544800475448004754480047FF
:1025500054480047544800475448004754480047EF
:1025600054480047544800475448004754480047DF
:1025700054480047544800475448004754480047CF
:1025800054480047544800475448004754480047BF
:1025900054480047544800475448004754480047AF
:1025A000544800475448004754480047544800479F
:1025B000544800475448004754480047544800478F
:1025C000544800475448004754480047544800477F
:1025D000544800475448004754480047544800476F
:1025E000544800475448004754480047544800475F
:1025F000544800475448004754480047544800474F
:10260000544800475448004754480047544800473E
:10261000544800475448004754480047544800472E
:10262000544800475448004754480047544800471E
:10263000544800475448004754480047544800470E
:1026400054480047544800475448004754480047FE
:1026500054480047544800475448004754480047EE
:102660000D2500301125003021760130B176013082
:10267000FDC3003009250030092500300925003050
:1026800009250030092500300925003009250030D2
:1026900009250030092500300925003009250030C2
:1026A00009250030092500300925003009250030B2
:1026B0000925003009250030C9450130E9450130C0
:1026C000094601302946013049460130694601304A
:1026D00089460130A9460130C9460130E94601303A
:1026E00009470130294701300D4101305541013082
:1026F0009D410130E54101302D42013075420130EC
:102700000925003009250030092500300925003051
:102710000925003009250030092500300925003041
:102720000925003009250030092500300925003031
:1027300009250030454D01300925003009250030BC
:102740000925003009250030092500300925003011
:102750000925003009250030092500300925003001
:1027600009250030092500300925003009250030F1
:1027700009250030092500300925003009250030E1
:1027800009250030092500300925003009250030D1
:1027900009250030092500300925003009250030C1
:1027A00009250030092500300925003009250030B1
:1027B00009250030F1B5002A4BD011F0030306D0F3
:1027C00011F8014B013A00F8014B42D0F5E710F047
:1027D00003031BD1102A04DB103AF0C9102AF0C001
:1027E000FAD2130744BF30C930C0530744BF51F871
:1027F000044B40F8044B930744BF31F8024B20F8D8
:10280000024BD30744BF0C78047022E0C3070AD4FC
:10281000042A16D351F8044B043A20F8024B250C35
:1028200020F8025BF4E7042A0BD351F8044B043A76
:1028300000F8014B250A20F8025B260E00F8016B18
:10284000F1E7002A1EBF11F8014B00F8014B013AD5
:10285000F7D1F1BD53B94AB9002908BF00281CBF00
:102860004FF0FF314FF0FF3000F00CB8ADF1080C25
:102870006DE904CE4EF0E2FCDDF804E0DDE9022370
:1028800004B07047704700BF7BB972B90029BEBF62
:1028900000204FF0004106E008BF00281CBF6FF089
:1028A00000414FF0FF30FFF7EDBFADF1080C6DE9CF
:1028B00004CE002909DB002B1ADB4EF0BFFCDDF84B
:1028C00004E0DDE9022304B07047404261EB4101BE
:1028D000002B1BDB4EF0B2FCDDF804E0DDE9022347
:1028E00004B0404261EB4101524263EB4303704745
:1028F000524263EB43034EF0A1FCDDF804E0DDE956
:10290000022304B0404261EB41017047524263EB45
:1029100043034EF093FCDDF804E0DDE9022304B04C
:10292000524263EB43037047EC46A0E8F05F80EC53
:10293000108B4FF000007047B0E8F05FE54690EC78
:10294000108B080008BF0120704700BF0000000086
:102950000000000000000000000000000000000077
:1029600002780B78012A28BF9A4240F0D8806DE99E
:10297000044540EA0104CDE902676FF0000C4FEA1C
:1029800044721AB380EA010414F0070F6BD100F00F
:10299000070420F0070004F0030521F007014FEAC7
:1029A000C505F0E8042314F0040FF1E804670CFAFD
:1029B00005F462EA040266EA04060BD063EA040343
:1029C000624667EA0407664604E000BFF0E80423B5
:1029D000F1E8046782FA4CF582EA0604A4FA8CF462
:1029E0006CBB83FA4CF583EA0705A5FA8CF595B91B
:1029F00050E9022351E9026782FA4CF582EA0604A3
:102A0000A4FA8CF483FA4CF583EA0705A5FA8CF551
:102A10002543DBD09CB92DBAB5FA85F424F0070420
:102A200027FA04F1DDE9026723FA04F303F0FF005B
:102A300001F0FF01FDE80445A0EB0100704724BA56
:102A4000B4FA84F424F0070426FA04F1DDE90267FD
:102A500022FA04F202F0FF0001F0FF01FDE8044554
:102A6000A0EB0100704714F0030F3CD110F00304F9
:102A700028D150F8082B51F8083B82FA4CF582EA2D
:102A80000305A5FA8CF55DB950F8042C51F8043C07
:102A900082FA4CF582EA0305A5FA8CF5002DE8D000
:102AA0002DBAB5FA85F424F0070423FA04F122FACA
:102AB00004F202F0FF0001F0FF01FDE80445A0EB85
:102AC000010070474FEAC40420F0030050F8082BBF
:102AD00021F0030151F8083B0CFA04F462EA040205
:102AE00063EA0403C9E710F003041DD0A1EB04015D
:102AF00020F00300E40750F8042B06D012D28B78A4
:102B00005FFAA2F4E41A06D12BB1CB785FFAB2F4E3
:102B1000E41A00D133B920465DF8104B7047A2EBA0
:102B20000300704701F1040150F8042BCC0721F099
:102B3000030151F8043B48D824D222F07F4482FAA2
:102B40004CF594EA1325A5FA8CF50AD165B951F82C
:102B5000043B84EA0204B4EB036F0ED150F8042B5B
:102B6000EBE74FEA132355E035F07F454DD1087868
:102B7000FDE80445C0F1000070474FEA126203F01F
:102B8000FF0347E002EA1C4482FA4CF594EA13453D
:102B9000A5FA8CF50AD165B951F8043B84EA020420
:102BA000B4EB034F0CD150F8042BEBE74FEA13437F
:102BB00030E015EA1C4528D10B884FEA124229E083
:102BC0004FEA124203EA1C4324E002F0FF0482FAB7
:102BD0004CF594EA1365A5FA8CF50AD165B951F85C
:102BE000043B84EA0204B4EB032F09D150F8042B10
:102BF000EBE74FEA13630DE015F0FF0F05D10B680B
:102C00004FEA122223F07F4304E04FF00000FDE87A
:102C10000445704712BA1BBA82FA4CF482EA0304E4
:102C2000A4FA8CF5B5FA85F402FA04F203FA04F377
:102C30004FEA1260FDE80445A0EB1360704700BF47
:102C400030B490F800F020F007016FF0000C10F0A5
:102C5000070491F820F040F048804FF000046FF036
:102C60000700D1E9002391F840F000F1080082FA52
:102C70004CF2A4FA8CF283FA4CF3A2FA8CF34BBB1D
:102C8000D1E9022382FA4CF200F10800A4FA8CF296
:102C900083FA4CF3A2FA8CF3E3B9D1E9042382FA64
:102CA0004CF200F10800A4FA8CF283FA4CF3A2FA79
:102CB0008CF37BB9D1E9062301F1200182FA4CF2B1
:102CC00000F10800A4FA8CF283FA4CF3A2FA8CF318
:102CD000002BC6D0002A04BF04301A4612BAB2FA3A
:102CE00082F200EBD20030BC7047D1E9002304F03F
:102CF0000305C4F100004FEAC50514F0040F91F874
:102D000040F00CFA05F562EA05021CBF63EA050310
:102D100062464FF00004AAE781F0004102E000BFE4
:102D200083F0004330B54FEA41044FEA430594EA8B
:102D3000050F08BF90EA020F1FBF54EA000C55EAC6
:102D4000020C7FEA645C7FEA655C00F0E2804FEA97
:102D50005454D4EB5555B8BF6D420CDD2C4480EA79
:102D6000020281EA030382EA000083EA010180EAA9
:102D7000020281EA0303362D88BF30BD11F0004FF7
:102D80004FEA01314FF4801C4CEA113102D040422D
:102D900061EB410113F0004F4FEA03334CEA133368
:102DA00002D0524263EB430394EA050F00F0A78080
:102DB000A4F10104D5F1200E0DDB02FA0EFC22FA7B
:102DC00005F2801841F1000103FA0EF2801843FA6F
:102DD00005F359410EE0A5F120050EF1200E012A60
:102DE00003FA0EFC28BF4CF0020C43FA05F3C0189E
:102DF00051EBE37101F0004507D54FF0000EDCF117
:102E0000000C7EEB00006EEB0101B1F5801F1BD3BF
:102E1000B1F5001F0CD349085FEA30004FEA3C0CC3
:102E200004F101044FEA445212F5800F80F09A80B9
:102E3000BCF1004F08BF5FEA500C50F1000041EBBD
:102E4000045141EA050130BD5FEA4C0C404141EBC1
:102E50000101013C28BFB1F5801FE9D291F0000FBC
:102E600004BF01460020B1FA81F308BF2033A3F16B
:102E70000B03B3F120020CDA0C3208DD02F1140C62
:102E8000C2F10C0201FA0CF021FA02F10CE002F19D
:102E90001402D8BFC2F1200C01FA02F120FA0CFC96
:102EA000DCBF41EA0C019040E41AA2BF01EB0451DF
:102EB000294330BD6FEA04041F3C1CDA0C340EDCDD
:102EC00004F11404C4F1200220FA04F001FA02F320
:102ED00040EA030021FA04F345EA030130BDC4F1DE
:102EE0000C04C4F1200220FA02F001FA04F340EAD3
:102EF0000300294630BD21FA04F0294630BD94F084
:102F0000000F83F4801306BF81F480110134013D6A
:102F10004EE77FEA645C18BF7FEA655C29D094EADB
:102F2000050F08BF90EA020F05D054EA000C04BF59
:102F30001946104630BD91EA030F1EBF0021002044
:102F400030BD5FEA545C05D14000494128BF41F0E3
:102F5000004130BD14F580043CBF01F5801130BD47
:102F600001F0004545F0FE4141F470014FF00000D2
:102F700030BD7FEA645C1ABF194610467FEA655C83
:102F80001CBF0B46024650EA013406BF52EA033525
:102F900091EA030F41F4002130BD00BF90F0000F13
:102FA00004BF0021704730B54FF4806404F132044F
:102FB0004FF000054FF0000150E700BF90F0000F08
:102FC00004BF0021704730B54FF4806404F132042F
:102FD00010F0004548BF40424FF000013EE700BFFF
:102FE00042004FEAE2014FEA31014FEA02701FBF8F
:102FF00012F07F4393F07F4F81F06051704732F0C1
:103000007F4208BF704793F07F4F04BF41F4002117
:10301000704730B54FF4607401F0004521F0004175
:103020001CE700BF50EA010208BF704730B54FF0FF
:1030300000050AE050EA010208BF704730B511F000
:10304000004502D5404261EB41014FF4806404F138
:1030500032045FEA915C3FF4D8AE4FF003025FEABE
:10306000DC0C18BF03325FEADC0C18BF033202EB42
:10307000DC02C2F1200300FA03FC20FA02F001FA9C
:1030800003FE40EA0E0021FA02F11444BDE600BF3F
:1030900000F1340191E838009C46A6464CF8045DE6
:1030A00090E8FF0FE54600BD90EC210B704700BF94
:1030B00080EC210B704700BF90EC200B704700BFE5
:1030C00080EC200B704700BFD0EC200B704700BF96
:1030D000C0EC200B704700BFF0EC0201F0EC0211D5
:1030E000F0EC0221F0EC0231F0EC0241F0EC025184
:1030F000F0EC0261F0EC0271F0EC0281F0EC029174
:10310000F0EC02A1F0EC02B1F0EC02C1F0EC02D163
:10311000F0EC02E1F0EC02F1704700BFE0EC0201DC
:10312000E0EC0211E0EC0221E0EC0231E0EC0241C3
:10313000E0EC0251E0EC0261E0EC0271E0EC0281B3
:10314000E0EC0291E0EC02A1E0EC02B1E0EC02C1A3
:10315000E0EC02D1E0EC02E1E0EC02F1704700BFEC
:10316000B0FC0181B0FC0191B0FC01A1B0FC01B147
:10317000704700BFA0FC0181A0FC0191A0FC01A14F
:10318000A0FC01B1704700BFEC4600B52DE900502E
:103190002DE9FF1F4FF000032DE90C0001A951F0AC
:1031A00077F9DDF840E012B0704700BFEC4600B59B
:1031B0002DE900502DE9FF1F4FF000032DE90C0011
:1031C00001A951F0A1F9DDF840E012B0704700BF4D
:1031D000EC4600B52DE900502DE9FF1F4FF000032C
:1031E0002DE90C0001A951F0AFF9DDF840E012B073
:1031F000704700BFEC4600B52DE900502DE9FF1FD8
:103200004FF000032DE90C0001AB51F075F9DDF82A
:1032100040E012B0704700BFEC4600B52DE9005009
:103220002DE9FF1F4FF000032DE90C0001AA51F01A
:10323000E7F9DDF840E012B0704700BF0348044BE7
:10324000834202D0034B03B1184770472402008029
:1032500024020080000000000548064B1B1AD90F0D
:1032600001EBA301491002D0034B03B1184770478B
:1032700024020080240200800000000010B5064CEB
:10328000237843B9FFF7DAFF044B13B10448AFF3D7
:1032900000800123237010BD280200800000000080
:1032A0007045063008B5054B1BB105490548AFF31D
:1032B0000080BDE80840FFF7CFBF00BF000000005E
:1032C0002C0200807045063014F01CBB14F0D0BBFB
:1032D0000020704700207047704700BFFEE700BF26
:1032E000704700BF704700BF704700BF704700BF06
:1032F000012070470020704701207047704700BFD1
:10330000704700BF704700BF704700BF704700BFE5
:10331000704700BF704700BF406B401AB0FA80F0A2
:1033200040097047436B03B170474163704700BF6A
:10333000406B704700B593B0124C68461DF006FF15
:103340002368BFF35B8FDB070AD50F4968461EF081
:1033500031FB68461FF0A6F80A2013F065FAF8E77B
:1033600020464EF0CBF80028EFD0074806F048FB87
:10337000064A07490448FFF7ABFF20464EF0DAF84B
:10338000E3E700BF4C020080500200800000008094
:10339000AD680030036810B5044682B063B19A6826
:1033A000824207D000237E215B201A46009334F02E
:1033B000E1FD236800229A60204602B010BD00BFE4
:1033C00070B58AB00D46044624220021684650F0AC
:1033D000E3FD4FF07E530026284600936946049390
:1033E00008932B688DF82460DB689847EC46A64666
:1033F000BCE80F004EF8086BAEE80F00BCE80F0009
:10340000AEE80F009CE803004EF8040B20468EF84F
:1034100000100AB070BD00BF054B10B5044640F85F
:10342000083B20F061FD204621F0FCFA204610BD4B
:10343000A4510530074B10B5044640F8083B20F076
:1034400053FD204621F0EEFA204614214EF054F8A8
:10345000204610BDA4510530F0B5174E83B0041DB1
:103460000F463568BFF35B8F15F0010512D0134B83
:10347000186810B90CE0406850B1036823F00303EA
:103480009C42F8D1394603B0BDE8F04022F032BE8C
:1034900003B0F0BD30464EF031F8084B0028E7D0BD
:1034A0001846074A07491D600193FFF711FF304690
:1034B0004EF040F8019BDBE74402008048020080A8
:1034C0000000008095330030836C9A0730B589B0D6
:1034D00019D523F003040394ACB1114D06234830F1
:1034E00003AA8DF814302B680494013306900792D8
:1034F000B3F57A7F2B600ADC236804A89847002381
:103500002B6009B030BD03F0010009B030BD0023CD
:103510001E21FC201A46009334F02CFDECE700BF7E
:10352000183A008070B50446806B88B081071BD5BF
:1035300020F003050395BDB1264E04F138030622A1
:103540000495069333688DF8142003AA013307927B
:10355000B3F57A7F336028DC2B6804A898470023F2
:10356000336028B108B070BD00F001000028F9D127
:10357000A36C9A0729D523F0030503952DB3154EA7
:103580000623483403AA8DF81430336804950133B8
:1035900007920694B3F57A7F33600EDC2B6804A89B
:1035A00098470023336008B070BD00231E21FC2023
:1035B0001A46009334F0DEFCCEE703460246009044
:1035C0001E21FC2034F0D6FCE8E703F0010008B02F
:1035D00070BD00BF183A0080F0B5856B87B0044617
:1035E00000F13806AA0703D5032D01D9EB0706D44D
:1035F000304622F0F3FF94F83C0007B0F0BD00F134
:103600003C02114F25F00305002305923A68049609
:10361000013202958DF80C30B2F57A7F3A600BDCFE
:103620002B6802A8984700233B600028E0D0A36BDA
:1036300023F00103A363DBE71A461E21FC2000935D
:1036400034F098FCECE700BF183A00802DE9F04711
:103650000446806C0D4688B0810704F1480840F1AB
:10366000C28020F003060396002E00F0BC800623E3
:10367000734F04968DF8143003ABCDF81880079380
:103680003B680133B3F57A7F3B6000F3AF8033686A
:1036900004A8984700233B6038B1A36C9A0704D56F
:1036A000032B02D908B0BDE8F087626B13689F074F
:1036B00002D533F003005FD1A36C9A0772D523F0D3
:1036C00003060396002E00F0A68006235C4F0496A6
:1036D0008DF8143003ABCDF8188007933B680133A5
:1036E000B3F57A7F3B6000F39B800DF1100A3368DD
:1036F000504698470023A66C81463B60B30753D5DC
:1037000026F00306B54231D0002D53D18EB13B686F
:103710000322049601338DF81420B3F57A7F3B60C1
:10372000CDE906856FDC33685046984700233B603F
:10373000E0B9A36C9E0701D5032B5FD823F00203E9
:103740004246A364032B6B6009D923F00301086888
:10375000C00701D4281D486003F00303136045F03F
:10376000030549464046A56421F0C2FD012384F8C3
:10377000703008B0BDE8F087416803F0010321F024
:103780000301194311604368032B95D923F003010A
:1037900003F003030E68F60758BF4A604360A36C4A
:1037A0009A078CD403F00109002DDFD00026244FA6
:1037B0000DF1100A3A680523049501328DF8143092
:1037C0000023CDF81880B2F57A7F3A6007932FDC9A
:1037D0002B685046984700233B60002896D0012371
:1037E00084F87030C5E700F0010055E700231E2182
:1037F000FC201A46009334F0BDFB48E723F0030396
:103800001A1D5B689EE700231E21FC201A460093C8
:1038100034F0B0FB87E703F00109002DC7D1A5E71D
:1038200000231E21FC201A46009334F0A3FB5CE722
:103830001A461E21FC20009334F09CFBC8E700BF11
:10384000183A0080826938B5032A244B0446036085
:1038500094BF0023012313EA520534D122F002035E
:10386000032B836124D91A4623F003010B68D80780
:103870000CD48868032B00F001008860F4D8A2699A
:10388000032A94BF0023012303EA52050DBB22F053
:10389000020204F11801A261032A09D922F00300EF
:1038A00002F00302036813F0010308BF43600A60DB
:1038B0000B4B204640F8083B20F016FB204621F039
:1038C000B1F8204638BD22F003035B68032BCBD848
:1038D000EEE722F0030151F8042FDDE7BC5105307B
:1038E000A4510530F0B50569044600F110064163A6
:1038F000A80789B001D5032D28D8304622F06EFEE6
:10390000237DEBB9206982073FD520F0030503959D
:10391000002D3AD003AA254F0621049507923A6854
:10392000069601328DF81410B2F57A7F3A602FDCDA
:103930002B6804A8984700233B6008B109B0F0BD8C
:10394000204609B0BDE8F0401CF04EBDE907D4D5D3
:1039500004F11402154F25F00305002307923A687D
:103960000696013204958DF81430B2F57A7F3A60EC
:1039700015DC2B6804A8984700233B600028BCD0C6
:10398000236923F001032361B7E700F00100D4E7C6
:103990001A461E21FC20009334F0ECFAC8E71A46C0
:1039A0001E21FC20009334F0E5FAE2E7183A00808B
:1039B000826938B5032A264B0446036094BF00236E
:1039C000012313EA520538D122F00203032B83614D
:1039D00024D91A4623F003010B68D8070CD4886851
:1039E000032B00F001008860F4D8A269032A94BF79
:1039F0000023012303EA52052DBB22F0020204F149
:103A00001801A261032A09D922F0030002F003027F
:103A1000036813F0010308BF43600A600D4B2046A2
:103A200040F8083B20F060FA204620F0FBFF2046DB
:103A300028214DF061FD204638BD22F003035B686C
:103A4000032BC7D8EAE722F0030151F8042FD9E786
:103A5000BC510530A45105302DE9F041856804467C
:103A600000F1080686B0A80701D5032D1CD8304602
:103A700004F1100722F0B2FD2669B4F90C50B20728
:103A800003D5032E01D9F30731D43846ADB222F065
:103A9000A5FDB4F9143000209BB265F30F0063F369
:103AA0001F4006B0BDE8F081E907E0D504F10C0243
:103AB000DFF8988025F0030500230592D8F8002050
:103AC0000496013202958DF80C30B2F57A7FC8F871
:103AD00000202DDC2B6802A898470023C8F800308E
:103AE0000028C4D0A36823F00103A360BFE7DFF878
:103AF0005C8004F1140226F0030600230592D8F836
:103B000000200497013202968DF80C30B2F57A7FCE
:103B1000C8F8002013DC336802A898470023C8F8CF
:103B200000300028B1D0236923F001032361ACE702
:103B30001A461E21FC20009334F01CFACAE71A46EC
:103B40001E21FC20009334F015FAE4E7183A0080B7
:103B500090F870302DE9F047044688B023B14B1E31
:103B6000012B15D903295DD0256E04F16006AA0743
:103B700003D5032D01D9EB0736D4304622F02EFDB4
:103B8000636E00209FED950A08B0BDE8F047184726
:103B9000836C13F0020661D033F0030200F0DB8087
:103BA000516803F00103164621F0030119438164B3
:103BB0005368032B40F2D88023F003010868C00744
:103BC00002D404F14800486003F00303D4F83480C1
:103BD0005360D8F8003013F0020546D103F0010914
:103BE0007F4F0DF1100A6AE004F164027C4F25F06A
:103BF0000305002307923A680696013204958DF872
:103C00001430B2F57A7F3A6000F3C4802B6804A8C0
:103C1000984700233B600028AFD0236E23F00103B8
:103C20002366AAE7836C9D079ED533F003019BD0E2
:103C30004A6803F0010322F003021A4382644B68CE
:103C4000032B91D923F003021068C00702D404F1BA
:103C50004800506003F003034B6085E7D0F83480E0
:103C6000D8F800309D077FF57FAF23F0030503955B
:103C7000002D00F0A9800623594F04958DF81430CB
:103C800003ABCDF8188007933B680133B3F57A7F17
:103C90003B6000F386800DF1100A2B685046984770
:103CA000002381463B60D8F8003013F0020500F095
:103CB000878023F00305B5423FF456AFAEB13A68B2
:103CC0000523049601328DF814300023CDF81880B6
:103CD000B2F57A7F3A6007936BDC336850469847B9
:103CE00000233B6000287FF43FAF9DB13B68032277
:103CF000049501338DF81420B3F57A7F3B60CDE94C
:103D000006863FDC2B685046984700233B6000281E
:103D10007FF42AAFD8F800309A0701D5032B2CD8AE
:103D200023F002034246C8F80030032B736009D920
:103D300023F003010868C70701D4301D486003F071
:103D40000303136046F0030649464046C8F8006086
:103D500021F0CEFA08E7D0F83480D8F8003099077F
:103D60007FF502AF164680E7D0F83480D8F80030EF
:103D700013F002057FF479AF30E723F003031A1D37
:103D80005B68D2E700231E21FC201A46009334F022
:103D9000F1F8B7E71A461E21FC20009334F0EAF848
:103DA00034E700231E21FC201A46009334F0E2F889
:103DB00071E71A461E21FC20009334F0DBF88CE7F3
:103DC000002E7FF47CAFCFE603F00109002E3FF414
:103DD000CBAE034F0DF1100A71E700BF00000000E9
:103DE000183A0080826A38B5032A444B04460360BF
:103DF00094BF0023012313EA52056FD122F002037E
:103E0000032B836225D91A4623F003010B68D807D8
:103E10000CD48868032B00F001008860F4D8A26AF3
:103E2000032A94BF0023012303EA5205002D60D129
:103E300022F0020204F12801A262032A09D922F029
:103E4000030002F00302036813F0010308BF43609C
:103E50000A60A2692A49032A216094BF0023012332
:103E600013EA520534D122F00203032BA36124D9B3
:103E70001A4623F003010B68D8070CD48868032B7B
:103E800000F001008860F4D8A269032A94BF0023DF
:103E9000012303EA52053DBB22F0020204F118019E
:103EA000A261032A09D922F0030002F00302036889
:103EB00013F0010308BF43600A60124B204640F82C
:103EC000083B20F011F8204620F0ACFD204638BD1C
:103ED00022F003035B68032BCBD8EEE722F0030349
:103EE0005B68032B90D8B4E722F0030151F8042F4C
:103EF000D7E722F0030151F8042F9EE7D451053093
:103F0000BC510530A4510530826A38B5032A464BAE
:103F10000446036094BF0023012313EA520573D1C2
:103F200022F00203032B836225D91A4623F00301F2
:103F30000B68D8070CD48868032B00F00100886058
:103F4000F4D8A26A032A94BF0023012303EA52058E
:103F5000002D64D122F0020204F12801A262032A9A
:103F600009D922F0030002F00302036813F00103F1
:103F700008BF43600A60A2692C49032A216094BFEC
:103F80000023012313EA520538D122F00203032B48
:103F9000A36124D91A4623F003010B68D8070CD477
:103FA0008868032B00F001008860F4D8A269032A16
:103FB00094BF0023012303EA52055DBB22F00202F5
:103FC00004F11801A261032A09D922F0030002F0CA
:103FD0000302036813F0010308BF43600A60144B37
:103FE000204640F8083B1FF07FFF204620F01AFDD6
:103FF000204638214DF080FA204638BD22F00303D8
:104000005B68032BC7D8EAE722F003035B68032B46
:104010008CD8B0E722F0030151F8042FD3E722F047
:10402000030151F8042F9AE7D4510530BC510530F3
:10403000A4510530000000002DE9F0410446806CD9
:104040000E46870704F148052DED068B88B040F138
:10405000968020F00308CDF80C80B8F1000F00F036
:104060008E8006238A4FCDF810808DF8143003AB74
:10407000069507933B680133B3F57A7F3B6000F305
:104080008180D8F8003004A8984700233B600028BE
:1040900053D1A36C13F002027CD033F0030840F03C
:1040A0008780022294ED149B96ED008BB4EE498B31
:1040B000F1EE10FA80F1C480B0EEC97B9FED706B19
:1040C000B4EE467BF1EE10FA16DCB0EEC87BB4EE2F
:1040D000467BF1EE10FA0FDCB5EEC09BF1EE10FA64
:1040E000B5EEC08B4CBF01200020F1EE10FA4CBFA2
:1040F0000121002188427CD084ED148B002A54D009
:1041000023F003060396002E4FD00623604F04963B
:104110008DF8143003AB069507933B680133B3F574
:104120007A7F3B6000F38F80336804A898470023B0
:1041300001463B60284621F0DBF8626B13689E075E
:1041400015D533F0030012D0416803F0010321F0CC
:104150000301194311604368032B08D923F00301BD
:1041600003F003030D68ED0758BF4A604360002366
:1041700084F8703008B0BDEC068BBDE8F08100F02B
:10418000010084E700231E21FC201A46009333F02F
:10419000F1FE76E794ED149B96ED008BB4EE498B1F
:1041A000F1EE10FA88D784ED148B03F00101C1E71A
:1041B000374F0223CDF810808DF814303B6801335F
:1041C000B3F57A7F3B60CDE9065644DCD8F8003081
:1041D00004A8984700233B600028AED1A36C032BB2
:1041E00003F002023FD9002A3DD023F00103A3646B
:1041F00058E739EE480B4EF0FFFEB0EE407BB0EED4
:10420000490BB0EE479B4EF0F7FEB0EE40ABB0EE80
:10421000480B4EF0F1FEB0EE401BB0EE4A0B4EF0F4
:10422000A9FE9FED197B20EE077BB4EEC79BF1EE54
:1042300010FA82D9A36C96ED008B03F002025BE7C3
:1042400084ED148B5CE700231E21FC201A460093AA
:1042500033F090FE68E70346024600901E21FC20E2
:1042600033F088FEB2E794ED149B96ED008BB4EE2C
:10427000489BF1EE10FAFFF51FAF3DE7AFF300806A
:10428000FFFFFFFFFFFFEF7FBBBDD7D9DF7CDB3D2B
:10429000183A0080000000002DE9F041066904464C
:1042A0000D4600F11008B7072DED068B92ED008B3F
:1042B00088B001D5032E2FD8404604F1480622F0DD
:1042C0008DF9237D002B00F0C080636BA06CAB42A6
:1042D00000F09D80810740D520F003050395002D57
:1042E0003BD00623B04F04958DF8143003AB0696EF
:1042F00007933B680133B3F57A7F3B6000F3AD80F1
:104300002B6804A8984700233B6050B3012008B0F5
:10431000BDEC068BBDE8F081F007CDD5A24F04F1CE
:10432000140226F00306002307923A68CDF818809D
:10433000013204968DF81430B2F57A7F3A6000F3BA
:104340000F81336804A8984700233B600028B3D04E
:10435000236923F001032361AEE700F00100002888
:10436000D4D1A16C8D0701F0020394ED149B6ED59E
:1043700003296CD9B4EE498B21F00102A264F1EE5D
:1043800010FA80F1FC801146B0EEC97B9FED826B84
:10439000B4EE467BF1EE10FA17DCB0EEC87BB4EE5B
:1043A000467BF1EE10FA10DCB5EEC09BF1EE10FA90
:1043B000B5EEC08B4CBF01200020F1EE10FA4CBFCF
:1043C00001220022904200F0A58084ED148B002B86
:1043D0004BD021F003050395002D46D0724F03AB5F
:1043E00006220495CDE906633B688DF8142001335D
:1043F000B3F57A7F3B6000F3BA802B6804A8984736
:10440000002301463B60304620F072FF7EE78307C1
:1044100001D503285FD8304622F0E0F894ED149BD4
:10442000B4EE498BF1EE10FA0FD6B0EEC97B9FEDDA
:104430005A6BB4EE467BF1EE10FA06DCB0EEC87BA8
:10444000B4EE467BF1EE10FA12DDA06C42E7B4EE5A
:10445000498BF1EE10FA97D7B7E700231E21FC2015
:104460001A46009333F086FD4AE701F00101CAE7DE
:10447000B5EEC09BF1EE10FAB5EEC08B4CBF012239
:104480000022F1EE10FA4CBF012300239A42DCD146
:1044900039EE480B4EF0B0FDB0EE407BB0EE490B6C
:1044A000B0EE479B4EF0A8FDB0EE40ABB0EE480B2F
:1044B0004EF0A2FDB0EE401BB0EE4A0B4EF05AFD9E
:1044C0009FED377B20EE077BB4EEC79BF1EE10FA31
:1044D000BBD800201BE7C7079DD504F15002324F1F
:1044E00020F00305002307923A68069601320495EE
:1044F0008DF81430B2F57A7F3A6046DC2B6804A858
:10450000984700233B60002885D0A36C23F001036B
:10451000A36480E739EE480B4EF06EFDB0EE407BB1
:10452000B0EE490BB0EE479B4EF066FDB0EE40ABEF
:10453000B0EE480B4EF060FDB0EE401BB0EE4A0B03
:104540004EF018FD9FED167B20EE077BB4EEC79B67
:10455000F1EE10FA7FF6DAAEA16C01F0020334E757
:104560001A461E21FC20009333F004FDE9E60023E7
:104570001E21FC201A46009333F0FCFC3DE721F09D
:10458000030584ED148B039528E71A461E21FC20B1
:10459000009333F0EFFCB1E7FFFFFFFFFFFFEF7F7A
:1045A000BBBDD7D9DF7CDB3D183A0080826B38B5C4
:1045B000032A664B0446036094BF0023012313EAD9
:1045C000520540F0AD8022F00203032B836326D90D
:1045D0001A4623F003010B68D8070CD48868032B14
:1045E00000F001008860F4D8A26B032A94BF002376
:1045F000012303EA5205002D40F09E8022F00202C2
:1046000004F13801A263032A09D922F0030002F061
:104610000302036813F0010308BF43600A60A26A43
:104620004B49032A216094BF0023012313EA52055A
:1046300070D122F00203032BA36225D91A4623F07E
:1046400003010B68D8070CD48868032B00F0010025
:104650008860F4D8A26A032A94BF0023012303EAE6
:104660005205002D63D122F0020204F12801A2625A
:10467000032A09D922F0030002F00302036813F0B1
:10468000010308BF43600A60A2693249032A21601E
:1046900094BF0023012313EA520535D122F002030F
:1046A000032BA36125D91A4623F003010B68D80711
:1046B0000CD48868032B00F001008860F4D8A2694C
:1046C000032A94BF0023012303EA5205002D38D1A9
:1046D00022F0020204F11801A261032A09D922F092
:1046E000030002F00302036813F0010308BF4360F4
:1046F0000A60194B204640F8083B1FF0F5FB2046A6
:1047000020F090F9204638BD22F003035B68032BAC
:10471000CAD8EEE722F003035B68032B8FD8B3E718
:1047200022F003035B68032B3FF653AF77E722F0D9
:10473000030151F8042F9BE722F0030151F8042FE5
:1047400061E722F0030151F8042FC6E7EC51053070
:10475000D4510530BC510530A4510530826B38B5B9
:10476000032A684B0446036094BF0023012313EA25
:10477000520540F0B18022F00203032B836326D957
:104780001A4623F003010B68D8070CD48868032B62
:1047900000F001008860F4D8A26B032A94BF0023C4
:1047A000012303EA5205002D40F0A28022F002020C
:1047B00004F13801A263032A09D922F0030002F0B0
:1047C0000302036813F0010308BF43600A60A26A92
:1047D0004D49032A216094BF0023012313EA5205A7
:1047E00074D122F00203032BA36225D91A4623F0C9
:1047F00003010B68D8070CD48868032B00F0010074
:104800008860F4D8A26A032A94BF0023012303EA34
:104810005205002D67D122F0020204F12801A262A4
:10482000032A09D922F0030002F00302036813F0FF
:10483000010308BF43600A60A2693449032A21606A
:1048400094BF0023012313EA520539D122F0020359
:10485000032BA36125D91A4623F003010B68D8075F
:104860000CD48868032B00F001008860F4D8A2699A
:10487000032A94BF0023012303EA5205002D3CD1F3
:1048800022F0020204F11801A261032A09D922F0E0
:10489000030002F00302036813F0010308BF436042
:1048A0000A601B4B204640F8083B1FF01DFB2046CA
:1048B00020F0B8F8204640214CF01EFE204638BDBE
:1048C00022F003035B68032BC6D8EAE722F0030358
:1048D0005B68032B8BD8AFE722F003035B68032BE5
:1048E0003FF64FAF73E722F0030151F8042F97E72B
:1048F00022F0030151F8042F5DE722F0030151F883
:10490000042FC2E7EC510530D4510530BC510530BD
:10491000A4510530026E38B5032A824B0446036069
:1049200094BF0023012313EA520540F0D48022F003
:104930000203032B036626D91A4623F003010B68F2
:10494000D8070CD48868032B00F001008860F4D8E5
:10495000226E032A94BF0023012303EA5205002D8F
:1049600040F0DB8022F0020204F160012266032A9B
:1049700009D922F0030002F00302036813F00103D7
:1049800008BF43600A60A26D032A94BF002301237D
:1049900013EA520540F0988022F00203032BA3652E
:1049A00026D91A4623F003010B68D8070CD488686F
:1049B000032B00F001008860F4D8A26D032A94BF95
:1049C0000023012303EA5205002D40F0A18022F0CC
:1049D000020204F15801A265032A09D922F003005A
:1049E00002F00302036813F0010308BF43600A608A
:1049F000A26C032A94BF0023012313EA520577D146
:104A000022F00203032BA36425D91A4623F00301E5
:104A10000B68D8070CD48868032B00F0010088606D
:104A2000F4D8A26C032A94BF0023012303EA5205A1
:104A3000002D68D122F0020204F14801A264032A89
:104A400009D922F0030002F00302036813F0010306
:104A500008BF43600A60A26B032A94BF00230123AE
:104A600013EA52053ED122F00203032BA36324D99B
:104A70001A4623F003010B68D8070CD48868032B6F
:104A800000F001008860F4D8A26B032A94BF0023D1
:104A9000012303EA52058DBB22F0020204F1380122
:104AA000A263032A09D922F0030002F0030203687B
:104AB00013F0010308BF43600A601B4B20462360CC
:104AC0001BF0E8FE204638BD22F003035B68032B91
:104AD0003FF668AF8CE722F003035B68032B3FF6D9
:104AE0002CAF50E722F003035B68032BC1D8E4E747
:104AF00022F003035B68032B88D8ACE722F00301A4
:104B000051F8042FCDE722F0030151F8042F96E766
:104B100022F0030151F8042F5EE722F0030151F85F
:104B2000042F24E70C510530C0500530026E38B513
:104B3000032A854B0446036094BF0023012313EA34
:104B4000520540F0D98022F00203032B036626D9D8
:104B50001A4623F003010B68D8070CD48868032B8E
:104B600000F001008860F4D8226E032A94BF00236D
:104B7000012303EA5205002D40F0E08022F00202FA
:104B800004F160012266032A09D922F0030002F031
:104B90000302036813F0010308BF43600A60A26DBB
:104BA000032A94BF0023012313EA520540F09D809D
:104BB00022F00203032BA36526D91A4623F0030132
:104BC0000B68D8070CD48868032B00F001008860BC
:104BD000F4D8A26D032A94BF0023012303EA5205EF
:104BE000002D40F0A68022F0020204F15801A265D7
:104BF000032A09D922F0030002F00302036813F02C
:104C0000010308BF43600A60A26C032A94BF00231B
:104C1000012313EA52057CD122F00203032BA36483
:104C200025D91A4623F003010B68D8070CD48868ED
:104C3000032B00F001008860F4D8A26C032A94BF13
:104C40000023012303EA5205002D6DD122F0020258
:104C500004F14801A264032A09D922F0030002F0FA
:104C60000302036813F0010308BF43600A60A26BEC
:104C7000032A94BF0023012313EA520543D122F0F3
:104C80000203032BA36325D91A4623F003010B6803
:104C9000D8070CD48868032B00F001008860F4D892
:104CA000A26B032A94BF0023012303EA5205002DBF
:104CB00035D122F0020204F13801A263032A09D996
:104CC00022F0030002F00302036813F0010308BF9F
:104CD00043600A601D4B204623601BF0DBFD20462D
:104CE00078214CF009FC204638BD22F003035B68B4
:104CF000032B3FF663AF87E722F003035B68032BC8
:104D00003FF627AF4BE722F003035B68032BBCD8C9
:104D1000E0E722F003035B68032B83D8A7E722F0C8
:104D2000030151F8042FC9E722F0030151F8042FC1
:104D300091E722F0030151F8042F59E722F0030113
:104D400051F8042F1FE700BF0C510530C05005304B
:104D500038B5A74B044640F8803B1FF0C5F8A26F5A
:104D6000032A94BF0023012313EA520540F01F8158
:104D700022F00203032BA36726D91A4623F003016E
:104D80000B68D8070CD48868032B00F001008860FA
:104D9000F4D8A26F032A94BF0023012303EA52052B
:104DA000002D40F01A8122F0020204F17801A2677E
:104DB000032A09D922F0030002F00302036813F06A
:104DC000010308BF43600A60226E8A49032A2160FA
:104DD00094BF0023012313EA520540F0E18022F042
:104DE0000203032B236626D91A4623F003010B681E
:104DF000D8070CD48868032B00F001008860F4D831
:104E0000226E032A94BF0023012303EA5205002DDA
:104E100040F0DE8022F0020204F160012266032AE3
:104E200009D922F0030002F00302036813F0010322
:104E300008BF43600A60A26D032A94BF00230123C8
:104E400013EA520540F0A58022F00203032BA3656C
:104E500026D91A4623F003010B68D8070CD48868BA
:104E6000032B00F001008860F4D8A26D032A94BFE0
:104E70000023012303EA5205002D40F0A48022F014
:104E8000020204F15801A265032A09D922F00300A5
:104E900002F00302036813F0010308BF43600A60D5
:104EA000A26C032A94BF0023012313EA52056AD19E
:104EB00022F00203032BA36425D91A4623F0030131
:104EC0000B68D8070CD48868032B00F001008860B9
:104ED000F4D8A26C032A94BF0023012303EA5205ED
:104EE000002D6BD122F0020204F14801A264032AD2
:104EF00009D922F0030002F00302036813F0010352
:104F000008BF43600A60A26B032A94BF00230123F9
:104F100013EA520531D122F00203032BA36325D9F2
:104F20001A4623F003010B68D8070CD48868032BBA
:104F300000F001008860F4D8A26B032A94BF00231C
:104F4000012303EA5205002D4CD122F0020204F1A4
:104F50003801A263032A09D922F0030002F00302F8
:104F6000036813F0010308BF43600A60224B204628
:104F700023601BF08FFC204638BD22F003035B68E2
:104F8000032BCED8F2E722F003035B68032B95D8FE
:104F9000B9E722F003035B68032B3FF65BAF7FE7C3
:104FA00022F003035B68032B3FF61FAF43E722F0B9
:104FB00003035B68032B3FF6E1AE05E722F0030134
:104FC00051F8042F93E722F0030151F8042F5BE717
:104FD00022F0030151F8042F21E722F0030151F8D8
:104FE000042FE5E622F0030151F8042FB2E700BFD9
:104FF000585105300C510530C050053038B5A94B1B
:10500000044640F8803B1EF06FFFA26F032A94BF56
:105010000023012313EA520540F0238122F002030A
:10502000032BA36726D91A4623F003010B68D80780
:105030000CD48868032B00F001008860F4D8A26FBC
:10504000032A94BF0023012303EA5205002D40F0F8
:105050001E8122F0020204F17801A267032A09D915
:1050600022F0030002F00302036813F0010308BFFB
:1050700043600A60226E8C49032A216094BF00239A
:10508000012313EA520540F0E58022F00203032BCE
:10509000236626D91A4623F003010B68D8070CD4DF
:1050A0008868032B00F001008860F4D8226E032A80
:1050B00094BF0023012303EA5205002D40F0E28053
:1050C00022F0020204F160012266032A09D922F0CB
:1050D000030002F00302036813F0010308BF4360FA
:1050E0000A60A26D032A94BF0023012313EA52052C
:1050F00040F0A98022F00203032BA36526D91A46AB
:1051000023F003010B68D8070CD48868032B00F048
:1051100001008860F4D8A26D032A94BF0023012304
:1051200003EA5205002D40F0A88022F0020204F1AB
:105130005801A265032A09D922F0030002F00302F4
:10514000036813F0010308BF43600A60A26C032ADE
:1051500094BF0023012313EA52056ED122F002030B
:10516000032BA36425D91A4623F003010B68D80743
:105170000CD48868032B00F001008860F4D8A26C7E
:10518000032A94BF0023012303EA5205002D6FD1A7
:1051900022F0020204F14801A264032A09D922F094
:1051A000030002F00302036813F0010308BF436029
:1051B0000A60A26B032A94BF0023012313EA52055D
:1051C00035D122F00203032BA36325D91A4623F01D
:1051D00003010B68D8070CD48868032B00F001008A
:1051E0008860F4D8A26B032A94BF0023012303EA4A
:1051F0005205002D50D122F0020204F13801A263C1
:10520000032A09D922F0030002F00302036813F015
:10521000010308BF43600A60244B204623601BF053
:1052200039FB204690214CF067F9204638BD22F02A
:1052300003035B68032BCAD8EEE722F003035B6825
:10524000032B91D8B5E722F003035B68032B3FF6ED
:1052500057AF7BE722F003035B68032B3FF61BAFDE
:105260003FE722F003035B68032B3FF6DDAE01E767
:1052700022F0030151F8042F8FE722F0030151F8C7
:10528000042F57E722F0030151F8042F1DE722F005
:10529000030151F8042FE1E622F0030151F8042F35
:1052A000AEE700BF585105300C510530C0500530F5
:1052B0002DE9F0418569044600F118070E46A8075C
:1052C0002DED048B86B001D5032D2DD8384621F065
:1052D00085F994ED088BB4EE488BF1EE10FA0DD6FB
:1052E000B0EEC87B9FED4C6BB4EE467BF1EE10FA4E
:1052F00004DCB5EEC08BF1EE10FA38D5A569AA072B
:1053000003D5032D01D9EB0757D4384621F066F9B0
:10531000304694ED080BB7EEC00B06B0BDEC048B25
:10532000BDE8F04131F064BEE907CFD5DFF8008178
:1053300004F1200225F0030500230592D8F800208F
:105340000497013202958DF80C30B2F57A7FC8F8D7
:10535000002053DC2B6802A898470023C8F80030CF
:105360000028B3D0A36923F00103A361AEE7B0EE38
:10537000480B4DF041FEB0EE407BB0EE480BB0EE76
:10538000478B4DF039FEB0EE409B9FED250B4DF065
:1053900033FEB0EE401BB0EE490B4DF0EBFD9FED40
:1053A000227B20EE077BB4EEC78BF1EE10FAA5D876
:1053B00006B0BDEC048BBDE8F081DFF8748004F129
:1053C000200225F0030500230592D8F80020049759
:1053D000013202958DF80C30B2F57A7FC8F80020C2
:1053E00013DC2B6802A898470023C8F80030002877
:1053F0008BD0A36923F00103A36186E71A461E211F
:10540000FC20009332F0B6FDA4E71A461E21FC20D2
:10541000009332F0AFFDE4E7FFFFFFFFFFFFEF7FF8
:105420000000000000000000BBBDD7D9DF7CDB3DE1
:10543000183A0080000000002DE9F041866A044619
:105440000D4600F12807B2072DED088B86B002D576
:10545000032E00F28B80384621F0C0F894ED0C8BBF
:10546000B4EE488BF1EE10FA0ED6B0EEC87B9FED8D
:10547000BE6BB4EE467BF1EE10FA05DCB5EEC08BE8
:10548000F1EE10FA40F19880A66AB00702D5032E1B
:1054900000F24481384621F0A1F8A66A94ED0C0B85
:1054A000B207F7EEC09B02D5032E00F21181B0EED9
:1054B000E98ADFEDB38A384621F090F8B4EE688AC5
:1054C00094ED0C0BF1EE10FAB7EEC09B05DCF5EE97
:1054D000C09AF1EE10FA40F1598195F8243095ED1B
:1054E000067AD5ED077A012B29EE877A69EE277ABD
:1054F00040F2E58095ED006A032BD5ED046A29EEB4
:10550000866A69EE266A00F2B38185ED006A85ED50
:10551000067AC5ED046AC5ED077ADFED997AB4EE37
:10552000678AF1EE10FA00F3FC81B0EEC97AB4EEAE
:10553000677AF1EE10FA10DCF5EEC09AF1EE10FA8F
:10554000B5EEC09A4CBF01220022F1EE10FA4CBF1A
:10555000012300239A4200F0088295F824300322A8
:10556000934238BF134685F8243049E0F3077FF5AE
:1055700072AFDFF8108200F1300226F0030600233C
:105580000592D8F800200497013202968DF80C306D
:10559000B2F57A7FC8F8002000F31582336802A8BC
:1055A00098470023C8F8003000283FF454AFA36A9E
:1055B00023F00103A3624EE7B7EE00AB38EE4A0BCF
:1055C0004DF01AFDB0EE407BB0EE480BB0EE478BCD
:1055D0004DF012FDB0EE409BB0EE4A0B4DF00CFDCD
:1055E000B0EE401BB0EE490B4DF0C4FC9FED607B6C
:1055F00020EE077BB4EEC78BF1EE10FA3FF644AF16
:10560000A66904F11807B00704D5032E02D9F107E3
:1056100000F10B81384620F0E1FF94ED088BB4EEE9
:10562000488BF1EE10FA0DD6B0EEC87B9FED4E6BB5
:10563000B4EE467BF1EE10FA04DCB5EEC08BF1EE71
:1056400010FA16D5A669B20704D5032E02D9F307BE
:1056500000F16981384620F0C1FF284694ED080B1F
:10566000B7EEC00B06B0BDEC088BBDE8F04131F0E1
:10567000BFBCB0EE480B4DF0BFFCB0EE407BB0EECF
:10568000480BB0EE478B4DF0B7FCB0EE409B9FED62
:105690003A0B4DF0B1FCB0EE401BB0EE490B4DF0B3
:1056A00069FC9FED337B20EE077BB4EEC78BF1EEF8
:1056B00010FAC7D806B0BDEC088BBDE8F081C5ED87
:1056C000009A85ED067A85ED049AC5ED077A24E700
:1056D000F3077FF5ECAEDFF8AC8004F1300226F082
:1056E000030600230592D8F80020049701320296A1
:1056F0008DF80C30B2F57A7FC8F8002000F3718184
:10570000336802A898470023C8F8003000283FF407
:10571000CEAEA36A23F00103A362C8E6F1077FF5CA
:10572000B9AEDFF8608004F1300226F003060023F2
:105730000592D8F800200497013202968DF80C30BB
:10574000B2F57A7FC8F8002000F34481336802A8DC
:1057500098470023C8F8003000283FF49BAEA36AA6
:1057600023F00103A36295E6FFFFFFFFFFFFEF7F3A
:10577000BBBDD7D9DF7CDB3D00000000000000008E
:10578000FFFF7F7F183A008017B7D138B7EE00BA15
:105790005FED03BA39EECB0A4DF064FCB0EE40AADF
:1057A000B0EE690A4DF05EFCF0EE40AAB0EE4B0A96
:1057B0004DF058FCF0EE400AB0EE6A0A4DF018FDCC
:1057C00060EE2B7AB4EEE7AAF1EE10FA3FF685AE62
:1057D000F0EEC97AF4EE687AF1EE10FA3FF77DAE9A
:1057E000B5EEC09AF1EE10FA3FF577AE39EE4B0AFE
:1057F0004DF038FCF0EE408AB0EE490A4DF032FC34
:10580000B0EE40AAB0EE4B0A4DF02CFCF0EE400A90
:10581000B0EE4A0A4DF0ECFC60EE2B7AF4EEE78A2B
:10582000F1EE10FA3FF659AEEAE6DFF8DC8104F15A
:10583000200226F0030600230592D8F800200497E2
:10584000013202968DF80C30B2F57A7FC8F800204C
:1058500000F3B280336802A898470023C8F80030EC
:1058600000283FF4D7AEA36923F00103A361D1E67A
:1058700095ED035A042BD5ED015A85ED006A25EE0E
:10588000296A85ED067A25EE897AC5ED046AC5EDAB
:10589000077A85ED036A85ED017A7FF43EAEDFED90
:1058A000587AB4EE678AF1EE10FA36DCB0EEC97AB7
:1058B000B4EE677AF1EE10FA2FDCF5EEC09AF1EE55
:1058C00010FAB5EEC09A4CBF01220022F1EE10FA98
:1058D0004CBF012300239A421FD139EEC90A4DF073
:1058E000C1FBB0EE408AB0EE690A4DF0BBFBF0EEB2
:1058F000408AB0EE490A4DF0B5FBF0EE400AB0EE3A
:10590000680A4DF075FCDFED3F7A60EE277AB4EE61
:10591000E78AF1EE10FA7FF60FAE062385F8243001
:105920006EE603221CE6DFF8E08004F1200226F098
:10593000030600230592D8F800200497013202964E
:105940008DF80C30B2F57A7FC8F8002050DC33684F
:1059500002A898470023C8F8003000283FF47AAE28
:10596000A36923F00103A36174E639EEC90A4DF07F
:1059700079FBB0EE408AB0EE690A4DF073FBF0EEB1
:10598000408AB0EE490A4DF06DFBF0EE400AB0EEF1
:10599000680A4DF02DFCDFED1B7A95F8243060EE9F
:1059A000277AB4EEE78AF1EE10FA94BF01220022C2
:1059B000C2F10302D2B2D3E51A461E21FC200093A5
:1059C00032F0D8FA46E71A461E21FC20009332F046
:1059D000D1FAE3E51A461E21FC20009332F0CAFA00
:1059E000B4E61A461E21FC20009332F0C3FA87E683
:1059F0001A461E21FC20009332F0BCFAA7E700BF34
:105A0000FFFF7F7F17B7D138183A00802DE9F047A4
:105A10002DED088B86B006460C4620F019FC054695
:105A2000002800F026823368C34A1B69934240F085
:105A3000C981B76B06F13808BB0702D5032F00F206
:105A4000A780404620F0CAFD96F83C70082F00F26F
:105A5000AE810122BA4012F492736ED112F0920F0D
:105A600000F09E81AA6905F1180A910702D5032A60
:105A700000F26E81504620F0B1FD95ED078ABAEE36
:105A8000EF8AB1EE489AB0EEC8AA052F6CD8022F63
:105A900000F2EF80DFEDA98ADFEDA99ADFEDA9AA78
:105AA000B4EE6AAAF1EE10FA05DCB5EEC08AF1EEAA
:105AB00010FA40F38B8194F82430D4ED067A062B4B
:105AC00094ED077A00F28B80012B77EEC87A37EEDF
:105AD000697A38BF0123C4ED067A2146304684ED49
:105AE000077A84F82430FFF7A7FCDFED967AB4EE4E
:105AF00067AAF1EE10FA05DCB5EEC08AF1EE10FAF5
:105B000040F1CB8094F82430D4ED067A062B94ED46
:105B1000077A00F28980012B78EE277A37EE297A0E
:105B200038BF0123C4ED067A84ED077A84F8243067
:105B300006B0BDEC088BBDE8F087AB6905F1180A2B
:105B4000990704D5032B02D9DA0700F1C381504627
:105B500020F044FDD5ED077A052FB8EEE78AB1EEC7
:105B6000489AB0EEC8AA92D92F6A05F12008B80762
:105B700004D5032F02D9FB0700F1F481404620F041
:105B80002DFDD5ED099AF8EEE99AF1EE698A85E7DF
:105B9000F8077FF556AFDFF8B49127F0030700232D
:105BA00006F13C01D9F80020CDF8108001320297AF
:105BB0008DF80C30B2F57A7FC9F80020059100F31A
:105BC000F4813B6802A898470023C9F800300028F8
:105BD0003FF437AFB36B23F00103B36331E7D4ED88
:105BE000023A94ED005A94ED054AD4ED035AA9EE19
:105BF000235AD4ED084A94ED016AE9EE045AD4ED33
:105C0000046AE9EE247AA3EEA86AE4EE286AA4EE18
:105C1000A87A84ED005AC4ED035AC4ED067A84EDE7
:105C2000016AC4ED046A58E7D4ED023A94ED005AD3
:105C300094ED054AD4ED035AA3EE885AD4ED084AF0
:105C400094ED016AE4EE085AD4ED046AE4EE887A31
:105C5000A3EEA96AE4EE296AA4EEA97A84ED005ABB
:105C6000C4ED035AC4ED067A84ED016AC4ED046AFA
:105C70005AE72F6A05F12008B90704D5032F02D986
:105C8000FA0700F14C81404620F0A8FCD5ED099AB6
:105C9000FAEEEF9AF1EE698A00E7B0EE480A9FED5E
:105CA0002AAA4DF0DFF9F0EE408AB0EE480A4DF036
:105CB000D9F9B0EE409A9FED220A4DF0D3F9F0EEFB
:105CC000400AB0EE490A4DF093FA60EE0A7AF4EE1B
:105CD000E78AF1EE10FA3FF615AFF0EEE97A9FEDA4
:105CE000197AF4EE477AF1EE10FA3FF70BAFF5EEC2
:105CF000C09AF1EE10FA3FF505AFB0EE690A4DF02B
:105D0000B1F9F0EE408AB0EE690A4DF0ABF9B0EEB1
:105D1000409A9FED0B0A4DF0A5F9F0EE400AB0EE67
:105D2000490A4DF065FA60EE0A7AF4EEE78AF1EE80
:105D300010FA3FF6E7AEFBE6D935003000000080F0
:105D400000000000FFFF7F7F17B7D138183A0080AE
:105D5000D0077FF58FAE22F00308DFF8B49205F18B
:105D60001C028DF80C30CDF810A00592D9F8002057
:105D7000CDF808800132B2F57A7FC9F8002000F32F
:105D80002481D8F8003002A898470023C9F80030D1
:105D900000283FF46FAEAB6923F00103AB6169E605
:105DA0009FED98AA9FED989AB0EE4A8A6DE69FED16
:105DB000958A9FED959AB0EE48AAF0EE498AF0EEEA
:105DC000489A6BE63046984707463FE6B0EE490AE8
:105DD0004DF048F9B0EE40BAB0EE490A4DF042F944
:105DE000F0EE40BA9FED870A4DF03CF9F0EE400A24
:105DF000B0EE6B0A4DF0FCF9DFED847A60EE277AA5
:105E0000B4EEE7BAF1EE10FA3FF655AEF0EEE97AED
:105E1000F4EE6A7AF1EE10FA3FF74DAEF5EEC09A65
:105E2000F1EE10FA3FF747AEB0EE680A4DF01AF9FE
:105E3000F0EE40AAB0EE680A4DF014F9B0EE40BAA8
:105E40009FED700A4DF00EF9F0EE400AB0EE4B0AED
:105E50004DF0CEF9DFED6D7A60EE277AF4EEE7AA29
:105E6000F1EE10FA3FF627AE21463046FFF7E4FA8E
:105E700042E603460246E9210090B320DFED619A35
:105E800032F078F89FED600A4DF0ECF8B0EE408A01
:105E90009FED5D0A4DF0E6F8F0EE408A9FED590A5D
:105EA0004DF0E0F8F0EE400AB0EE680A4DF0A0F9CF
:105EB000DFED567A20EE270AB4EEC80AF1EE10FAAA
:105EC0007ADADFED518AB0EE698AB0EE69AAB0EEF7
:105ED000689AF0E5DFF8389123F0030805F11C011A
:105EE0000023D9F80020CDF810A00132CDF80880A9
:105EF0008DF80C30B2F57A7FC9F80020059172DC7C
:105F0000D8F8003002A898470023C9F800300028CC
:105F10003FF41DAEAB6923F00103AB6117E6DFF878
:105F2000F09027F00307002305F12401D9F80020A1
:105F3000CDF81080013202978DF80C30B2F57A7FDF
:105F4000C9F80020059155DC3B6802A8984700235A
:105F5000C9F8003000283FF496AE2B6A23F0010305
:105F60002B6290E6DFF8A89027F00307002305F1E5
:105F70002401D9F80020CDF81080013202978DF865
:105F80000C30B2F57A7FC9F80020059124DC3B681B
:105F900002A898470023C9F8003000283FF4EEAD6E
:105FA0002B6A23F001032B62E8E51A461E21FC2030
:105FB000009331F0DFFF04E69FED139AB0EE698A9B
:105FC000B0EE69AAF0EE498A2EE71A461E21FC209F
:105FD000009331F0CFFFD4E61A461E21FC20009337
:105FE00031F0C8FFD3E71A461E21FC20009331F0A0
:105FF000C1FF85E71A461E21FC20009331F0BAFF4D
:10600000A2E700BF000000000000008017B7D138F1
:10601000183A0080AB4AD0F8A43030B5044683B0BB
:1060200002607BB100F1A4025968914208D00023BC
:106030007E215B201A46009331F09CFFD4F8A430F7
:1060400000225A60D4F8A0307BB104F1A002596854
:10605000914208D000237E215B201A46009331F044
:1060600089FFD4F8A03000225A60D4F89C307BB16C
:1060700004F19C025968914208D000237E215B20E4
:106080001A46009331F076FFD4F89C3000225A6013
:10609000D4F89420032A94BF0023012313EA520565
:1060A00040F08D8122F00203032BC4F8943028D9EC
:1060B0001A4623F003010B68D8070DD48868032B18
:1060C00000F001008860F4D8D4F89420032A94BF2B
:1060D0000023012303EA5205002D40F0B28122F093
:1060E000020204F19401C4F89420032A09D922F091
:1060F000030002F00302036813F0010308BF4360CA
:106100000A60D4F88C20032A94BF0023012313EAE9
:10611000520540F04D8122F00203032BC4F88C306D
:1061200028D91A4623F003010B68D8070DD48868D4
:10613000032B00F001008860F4D8D4F88C20032AE7
:1061400094BF0023012303EA5205002D40F074811F
:1061500022F0020204F18C01C4F88C20032A09D930
:1061600022F0030002F00302036813F0010308BFEA
:1061700043600A60544B204640F8803B1DF0B4FE5B
:10618000A26F032A94BF0023012313EA520540F0B3
:10619000248122F00203032BA36726D91A4623F099
:1061A00003010B68D8070CD48868032B00F00100AA
:1061B0008860F4D8A26F032A94BF0023012303EA66
:1061C0005205002D40F0338122F0020204F17801E3
:1061D000A267032A09D922F0030002F00302036830
:1061E00013F0010308BF43600A60226E3749032A97
:1061F000216094BF0023012313EA520540F0E6809A
:1062000022F00203032B236626D91A4623F003014A
:106210000B68D8070CD48868032B00F00100886055
:10622000F4D8226E032A94BF0023012303EA520507
:10623000002D40F0ED8022F0020204F160012266A0
:10624000032A09D922F0030002F00302036813F0C5
:10625000010308BF43600A60A26D032A94BF0023B4
:10626000012313EA520540F0C68022F00203032BFB
:10627000A3652DD91A4623F003010B68D8070CD467
:106280008868032B00F001008860F4D8A26D032A0F
:1062900094BF0023012303EA5205002D40F0BD8086
:1062A00022F0020204F15801A265032A10D922F05B
:1062B000030002F00302036813F0010308BF436008
:1062C0000A6005E01C520530585105300C5105306C
:1062D000A26C032A94BF0023012313EA520540F065
:1062E000838022F00203032BA36426D91A4623F0ED
:1062F00003010B68D8070CD48868032B00F0010059
:106300008860F4D8A26C032A94BF0023012303EA17
:106310005205002D40F09A8022F0020204F148015B
:10632000A264032A09D922F0030002F003020368E1
:1063300013F0010308BF43600A60A26B032A94BFF5
:106340000023012313EA52055CD122F00203032B40
:10635000A36325D91A4623F003010B68D8070CD490
:106360008868032B00F001008860F4D8A26B032A30
:1063700094BF0023012303EA5205002D52D122F0DD
:10638000020204F13801A263032A09D922F00300B2
:1063900002F00302036813F0010308BF43600A60C0
:1063A0002D4B204623601AF075FA204603B030BD0D
:1063B00022F003035B68032B3FF6B4AEDAE622F06B
:1063C00003035B68032B3FF674AE9AE622F00303E7
:1063D0005B68032B3FF61AAF3EE722F003035B68CE
:1063E000032B3FF6DCAE00E722F003035B68032BD0
:1063F0003FF67DAFA1E722F003035B68032B3FF676
:106400003AAF65E722F003035B68032BA3D8C7E725
:1064100022F0030151F8042F12E722F0030151F892
:10642000042F42E722F0030151F8042FACE722F0D9
:10643000030151F8042FCCE622F0030151F8042F98
:106440008CE622F0030151F8042F4EE622F00301FE
:1064500051F8042F65E700BFC0500530AB4AD0F8B3
:10646000A43030B5044683B002607BB100F1A402D1
:106470005968914208D000237E215B201A46009380
:1064800031F078FDD4F8A43000225A60D4F8A0305E
:106490007BB104F1A0025968914208D000237E210B
:1064A0005B201A46009331F065FDD4F8A03000223D
:1064B0005A60D4F89C307BB104F19C025968914237
:1064C00008D000237E215B201A46009331F052FD54
:1064D000D4F89C3000225A60D4F89420032A94BF48
:1064E0000023012313EA520540F0918122F00203B8
:1064F000032BC4F8943028D91A4623F003010B6803
:10650000D8070DD48868032B00F001008860F4D808
:10651000D4F89420032A94BF0023012303EA5205F0
:10652000002D40F0B68122F0020204F19401C4F87B
:106530009420032A09D922F0030002F00302036821
:1065400013F0010308BF43600A60D4F88C20032ACB
:1065500094BF0023012313EA520540F0518122F039
:106560000203032BC4F88C3028D91A4623F0030108
:106570000B68D8070DD48868032B00F001008860F1
:10658000F4D8D4F88C20032A94BF0023012303EA13
:106590005205002D40F0788122F0020204F18C01B6
:1065A000C4F88C20032A09D922F0030002F0030268
:1065B000036813F0010308BF43600A60544B204690
:1065C00040F8803B1DF090FCA26F032A94BF00238B
:1065D000012313EA520540F0288122F00203032B25
:1065E000A36726D91A4623F003010B68D8070CD4F9
:1065F0008868032B00F001008860F4D8A26F032A9A
:1066000094BF0023012303EA5205002D40F0378197
:1066100022F0020204F17801A267032A09D922F0CC
:10662000030002F00302036813F0010308BF436094
:106630000A60226E3749032A216094BF0023012398
:1066400013EA520540F0EA8022F00203032B23668E
:1066500026D91A4623F003010B68D8070CD48868A2
:10666000032B00F001008860F4D8226E032A94BF47
:106670000023012303EA5205002D40F0F18022F0AF
:10668000020204F160012266032A09D922F0030004
:1066900002F00302036813F0010308BF43600A60BD
:1066A000A26D032A94BF0023012313EA520540F090
:1066B000CA8022F00203032BA3652DD91A4623F0CA
:1066C00003010B68D8070CD48868032B00F0010085
:1066D0008860F4D8A26D032A94BF0023012303EA43
:1066E0005205002D40F0C18022F0020204F1580151
:1066F000A265032A10D922F0030002F00302036806
:1067000013F0010308BF43600A6005E01C52053026
:10671000585105300C510530A26C032A94BF002358
:10672000012313EA520540F0878022F00203032B75
:10673000A36426D91A4623F003010B68D8070CD4AA
:106740008868032B00F001008860F4D8A26C032A4B
:1067500094BF0023012303EA5205002D40F09E80E0
:1067600022F0020204F14801A264032A09D922F0AE
:10677000030002F00302036813F0010308BF436043
:106780000A60A26B032A94BF0023012313EA520577
:1067900060D122F00203032BA36325D91A4623F00C
:1067A00003010B68D8070CD48868032B00F00100A4
:1067B0008860F4D8A26B032A94BF0023012303EA64
:1067C0005205002D56D122F0020204F13801A263D5
:1067D000032A09D922F0030002F00302036813F030
:1067E000010308BF43600A602F4B204623601AF064
:1067F00051F82046A8214AF07FFE204603B030BD64
:1068000022F003035B68032B3FF6B0AED6E622F01E
:1068100003035B68032B3FF670AE96E622F003039A
:106820005B68032B3FF616AF3AE722F003035B6881
:10683000032B3FF6D8AEFCE622F003035B68032B84
:106840003FF679AF9DE722F003035B68032B3FF629
:1068500036AF61E722F003035B68032B9FD8C3E7E1
:1068600022F0030151F8042F0EE722F0030151F842
:10687000042F3EE722F0030151F8042FA8E722F08D
:10688000030151F8042FC8E622F0030151F8042F48
:1068900088E622F0030151F8042F4AE622F00301B2
:1068A00051F8042F61E700BFC05005302DE9F041D9
:1068B000AD4B044682B0D0F8E00623601DF06AFBC1
:1068C000D4F8D436032B01F25982D4F8D81631B15A
:1068D0000A6823F0030302F003021A430A60D4F8A3
:1068E000C8061DF057FBD4F8BC36032B01F23C82DE
:1068F000D4F8C01631B10A6823F0030302F0030292
:106900001A430A60D4F8A036002B01F0FC8304F58A
:10691000D462596891420BD00023812135201A4658
:10692000009331F027FBD4F8A036002B01F0EB8365
:10693000D4F8A4265A60D4F8A42602B11360D4F87F
:106940009C061DF027FBD4F890061DF023FBD4F81D
:106950008436032B07D923F003021168C90702D438
:10696000D4F888165160D4F8881631B10A6823F03B
:10697000030302F003021A430A60D4F87836032BAB
:1069800007D923F003021168CF0702D4D4F87C168C
:106990005160D4F87C1631B10A6823F0030302F089
:1069A00003021A430A60D4F86C061DF0F3FAD4F817
:1069B0006036032B07D923F003021168CE0702D4F7
:1069C000D4F864165160D4F8641631B10A6823F023
:1069D000030302F003021A430A60D4F85436032B6F
:1069E00007D923F003021168CD0702D4D4F8581652
:1069F0005160D4F8581631B10A6823F0030302F04D
:106A000003021A430A60D4F83836002B01F075836C
:106A100004F5C762596891420BD0002381213520CB
:106A20001A46009331F0A6FAD4F83836002B01F05C
:106A30006483D4F83C265A60D4F83C2602B1136033
:106A4000D4F834061DF0A6FAD4F82836032B07D95B
:106A500023F003021168C80702D4D4F82C16516041
:106A6000D4F82C1631B10A6823F0030302F00302B4
:106A70001A430A60D4F81C36032B07D923F003020B
:106A80001168C90702D4D4F820165160D4F8201632
:106A900031B10A6823F0030302F003021A430A60CB
:106AA000D4F810061DF076FAD4F80436032B07D973
:106AB00023F003021168CF0702D4D4F808165160FE
:106AC000D4F8081631B10A6823F0030302F0030278
:106AD0001A430A60D4F8F835032B07D923F00302D0
:106AE0001168CE0702D4D4F8FC155160D4F8FC1517
:106AF00031B10A6823F0030302F003021A430A606B
:106B00001A4A04F59367D4F8D835C4F89824002BB2
:106B100001F0F68204F5BB62596891420BD0002364
:106B2000812135201A46009331F024FAD4F8D83563
:106B3000002B01F0E582D4F8DC255A60D4F8DC257E
:106B400002B11360D4F8C03504F5B068084E032BC9
:106B5000D4F8C415C4F880650CD923F0030210687A
:106B6000C50758BF516005E068520530607C0530AC
:106B70004C7C053031B10A6823F0030302F00302B4
:106B80001A430A6004F2B4501DF0AEF9D4F8B035DF
:106B90007BB104F5B6625968914208D000237E218A
:106BA0005B201A46009331F0E5F9D4F8B0350022A5
:106BB0005A60D4F8A825032A94BF0023012313EABE
:106BC000520541F0488122F00203032BC4F8A83596
:106BD00028D91A4623F003010B68D8070DD488681A
:106BE000032B00F001008860F4D8D4F8A825032A0C
:106BF00094BF0023012303EA5205002D41F068826F
:106C000022F0020204F5B561C4F8A825032A09D9C7
:106C100022F0030002F00302036813F0010308BF2F
:106C200043600A60D4F8A025032A94BF00230123FF
:106C300013EA520541F0638122F00203032BC4F8EA
:106C4000A03528D91A4623F003010B68D8070DD4C4
:106C50008868032B00F001008860F4D8D4F8A025E0
:106C6000032A94BF0023012303EA5205002D41F0BB
:106C7000298222F0020204F5B461C4F8A025032A97
:106C800009D922F0030002F00302036813F00103A4
:106C900008BF43600A60D4F89825032A94BF0023F4
:106CA000012313EA520541F0228122F00203032B53
:106CB000C4F8983528D91A4623F003010B68D80781
:106CC0000DD48868032B00F001008860F4D8D4F854
:106CD0009825032A94BF0023012303EA5205002DBF
:106CE00041F0EA8122F0020204F5B361C4F898256C
:106CF000032A09D922F0030002F00302036813F00B
:106D0000010308BF43600A60B84D4046C4F880558F
:106D10001DF096F9D4F87025032A94BF00230123AF
:106D200013EA520C41F0FB8022F00203032BC4F85B
:106D3000703529D91A4623F003010B68D8070DD402
:106D40008868032B00F001008860F4D8D4F870251F
:106D5000032A94BF0023012303EA520CBCF1000F65
:106D600041F0A48122F0020204F5AE61C4F870255E
:106D7000032A09D922F0030002F00302036813F08A
:106D8000010308BF43600A60D4F86025032A94BF5A
:106D90000023012313EA520C41F0B98022F00203D0
:106DA000032BC4F8603529D91A4623F003010B6878
:106DB000D8070DD48868032B00F001008860F4D850
:106DC000D4F86025032A94BF0023012303EA520C60
:106DD000BCF1000F41F0648122F0020204F5AC61C5
:106DE000C4F86025032A09D922F0030002F0030247
:106DF000036813F0010308BF43600A60D4F850250C
:106E0000032A94BF0023012313EA520C41F0978018
:106E100022F00203032BC4F8503529D91A4623F077
:106E200003010B68D8070DD48868032B00F001001C
:106E30008860F4D8D4F85025032A94BF0023012396
:106E400003EA520CBCF1000F41F0248122F002024F
:106E500004F5AA61C4F85025032A09D922F00300D9
:106E600002F00302036813F0010308BF43600A60E5
:106E7000D4F84825032A94BF0023012313EA520CB7
:106E800041F0558022F00203032BC4F8483529D97C
:106E90001A4623F003010B68D8070DD48868032B2A
:106EA00000F001008860F4D8D4F84825032A94BF84
:106EB0000023012303EA520CBCF1000F41F0E480EF
:106EC00022F0020204F5A961C4F84825032A09D971
:106ED00022F0030002F00302036813F0010308BF6D
:106EE00043600A60D4F844357BB104F244525968D7
:106EF000914208D000237E215B201A46009331F096
:106F000039F8D4F8443500225A60D4F840357BB1C2
:106F100004F5A8625968914208D000237E215B20C5
:106F20001A46009331F026F8D4F8403500225A6012
:106F3000D4F83C357BB104F23C525968914208D0F8
:106F400000237E215B201A46009331F013F8D4F819
:106F50003C3500225A60D4F838357BB104F5A7627D
:106F60005968914208D000237E215B201A46009385
:106F700031F000F8D4F8383500225A60D4F83435AE
:106F80007BB104F234525968914208D000237E212B
:106F90005B201A46009330F0EDFFD4F83435002220
:106FA0005A60D4F830357BB104F5A6625968914235
:106FB00008D000237E215B201A46009330F0DAFFD0
:106FC000D4F8303500225A60094B04F22450C4F83A
:106FD000983422F0BDF838461FF0FCF9054B04F553
:106FE000916004F56877C4F8A03305E008520530D5
:106FF0000C790530887B05301CF076FFD4F87404DA
:1070000028F08CF904F58D6022F0A2F8D4F8602401
:10701000032A94BF0023012313EA520C40F0238774
:1070200022F00203032BC4F8603429D91A4623F056
:1070300003010B68D8070DD48868032B00F001000A
:107040008860F4D8D4F86024032A94BF0023012375
:1070500003EA520CBCF1000F41F0108022F0020252
:1070600004F58C61C4F86024032A09D922F00300D6
:1070700002F00302036813F0010308BF43600A60D3
:10708000D4F85824032A94BF0023012313EA520C96
:1070900040F07E8622F00203032BC4F8583429D92D
:1070A0001A4623F003010B68D8070DD48868032B18
:1070B00000F001008860F4D8D4F85824032A94BF63
:1070C0000023012303EA520CBCF1000F40F0D087EB
:1070D00022F0020204F58B61C4F85824032A09D96E
:1070E00022F0030002F00302036813F0010308BF5B
:1070F00043600A6004F23C401EF026FBD4F83824BA
:10710000032A94BF0023012313EA520C40F0608647
:1071100022F00203032BC4F8383429D91A4623F08D
:1071200003010B68D8070DD48868032B00F0010019
:107130008860F4D8D4F83824032A94BF00230123AC
:1071400003EA520CBCF1000F40F08C8722F00202DF
:1071500004F58761C4F83824032A09D922F0030012
:1071600002F00302036813F0010308BF43600A60E2
:10717000D4F82C24032A94BF0023012313EA520CD1
:1071800040F01E8622F00203032BC4F82C3429D9C8
:107190001A4623F003010B68D8070DD48868032B27
:1071A00000F001008860F4D8D4F82C24032A94BF9E
:1071B0000023012303EA520CBCF1000F40F04C877E
:1071C00022F0020204F22C41C4F82C24032A09D92B
:1071D00022F0030002F00302036813F0010308BF6A
:1071E00043600A60384604F552771FF0F3F8D4F88C
:1071F0008833C4F84863032B00F2AC85D4F88C13B1
:1072000031B10A6823F0030302F003021A430A6053
:1072100004F55F701CF068FED4F878337BB104F598
:107220005E725968914208D000237E215B201A4685
:10723000009330F09FFED4F8783300225A60D4F8DF
:107240007023032A94BF0023012313EA520640F05F
:10725000218622F00203032BC4F8703328D91A4682
:1072600023F003010B68D8070DD48868032B00F0C6
:1072700001008860F4D8D4F87023032A94BF002357
:10728000012303EA5206002E40F0E08622F00202BB
:1072900004F55C71C4F87023032A09D922F00300B5
:1072A00002F00302036813F0010308BF43600A60A1
:1072B000D4F86823032A94BF0023012313EA52065B
:1072C00040F0E08522F00203032BC4F8683328D98C
:1072D0001A4623F003010B68D8070DD48868032BE6
:1072E00000F001008860F4D8D4F86823032A94BF22
:1072F0000023012303EA5206002E40F0A18622F06B
:10730000020204F55A71C4F86823032A09D922F04D
:10731000030002F00302036813F0010308BF436097
:107320000A60D4F86023032A94BF0023012313EAE0
:10733000520640F0BF8522F00203032BC4F86033ED
:1073400028D91A4623F003010B68D8070DD48868A2
:10735000032B00F001008860F4D8D4F86023032ADE
:1073600094BF0023012303EA5206002E40F06286F8
:1073700022F0020204F55871C4F86023032A09D9E7
:1073800022F0030002F00302036813F0010308BFB8
:1073900043600A603846C4F848531CF051FEB44BB1
:1073A00004F54E7004F50C75C4F8303204F53C76E3
:1073B0001CF09AFDD4F82823AE4B032AC4F8F0320F
:1073C00094BF0023012313EA520740F06B8522F09B
:1073D0000203032BC4F8283328D91A4623F00301EB
:1073E0000B68D8070DD48868032B00F00100886073
:1073F000F4D8D4F82823032A94BF0023012303EAF6
:107400005207002F40F0108622F0020204F54A7164
:10741000C4F82823032A09D922F0030002F003024A
:10742000036813F0010308BF43600A60D4F818230F
:10743000914B032AC4F8F03294BF0023012313EACE
:10744000520740F0D58422F00203032BC4F818330E
:1074500028D91A4623F003010B68D8070DD4886891
:10746000032B00F001008860F4D8D4F81823032A15
:1074700094BF0023012303EA5207002F40F0CE857A
:1074800022F0020204F54671C4F81823032A09D930
:1074900022F0030002F00302036813F0010308BFA7
:1074A00043600A60D4F80823744B032AC4F8F0320E
:1074B00094BF0023012313EA520740F0918422F085
:1074C0000203032BC4F8083328D91A4623F003011A
:1074D0000B68D8070DD48868032B00F00100886082
:1074E000F4D8D4F80823032A94BF0023012303EA25
:1074F0005207002F40F08C8522F0020204F5427101
:10750000C4F80823032A09D922F0030002F0030279
:10751000036813F0010308BF43600A60584B04F589
:107520003E70C4F8F0321CF0DFFC30461DF07AFAF1
:10753000D4F8E422032A94BF0023012313EA52065D
:1075400040F0658422F00203032BC4F8E43228D90A
:107550001A4623F003010B68D8070DD48868032B63
:1075600000F001008860F4D8D4F8E422032A94BF24
:107570000023012303EA5206002E40F0438522F047
:10758000020204F53971C4F8E422032A09D922F071
:10759000030002F00302036813F0010308BF436015
:1075A0000A60D4F8DC22032A94BF0023012313EAE3
:1075B000520640F0258422F00203032BC4F8DC328B
:1075C00028D91A4623F003010B68DF070DD4886819
:1075D000032B00F001008860F4D8D4F8DC22032AE1
:1075E00094BF0023012303EA5206002E40F00485D5
:1075F00022F0020204F53771C4F8DC22032A09D90B
:1076000022F0030002F00302036813F0010308BF35
:1076100043600A60D4F8D422032A94BF00230123D4
:1076200013EA520640F0BC8322F00203032BC4F895
:10763000D43233D91A4623F003010B68D8070DD48E
:107640008868032B00F001008860F4D8D4F8D422B5
:10765000032A94BF0023012303EA5206002E40F0C0
:10766000C58422F0020204F53571C4F8D42209E081
:10767000C07C0530EC510530D4510530BC5105308B
:10768000A4510530032A09D922F0030002F00302B5
:10769000036813F0010308BF43600A6004F5327009
:1076A00021F056FD04F5307018F090F9D4F8BC22A2
:1076B000032A94BF0023012313EA520640F0DB8320
:1076C00022F00203032BC4F8BC3228D91A4623F057
:1076D00003010B68DF070DD48868032B00F001005D
:1076E0008860F4D8D4F8BC22032A94BF0023012375
:1076F00003EA5206002E40F0738422F0020204F5E1
:107700002F71C4F8BC22032A09D922F0030002F029
:107710000302036813F0010308BF43600A602846B0
:107720001EF058FEB24AD4F82C32C4F888217BB13E
:1077300004F50B725968914208D000237E215B202A
:107740001A46009330F016FCD4F82C3200225A600E
:10775000D4F828327BB104F50A725968914208D0F6
:1077600000237E215B201A46009330F003FCD4F8FE
:10777000283200225A60D4F824327BB104F5097211
:107780005968914208D000237E215B201A4600935D
:1077900030F0F0FBD4F8243200225A60D4F81C22D6
:1077A000032A94BF0023012313EA520540F0FF820D
:1077B00022F00203032BC4F81C3228D91A4623F006
:1077C00003010B68DE070DD48868032B00F001006D
:1077D0008860F4D8D4F81C22032A94BF0023012324
:1077E00003EA5205002D40F0F68322F0020204F570
:1077F0000771C4F81C22032A09D922F0030002F001
:107800000302036813F0010308BF43600A60D4F861
:107810001422032A94BF0023012313EA520540F0E7
:10782000058322F00203032BC4F8143228D91A4628
:1078300023F003010B68D8070DD48868032B00F0F0
:1078400001008860F4D8D4F81422032A94BF0023DE
:10785000012303EA5205002D40F0B88322F0020212
:1078600004F50571C4F81422032A09D922F0030093
:1078700002F00302036813F0010308BF43600A60CB
:107880005C4B04F5027004F5C475C4F888311CF033
:107890002BFBD4F80022032A94BF0023012313EA10
:1078A000520640F0BC8222F00203032BC4F80032DF
:1078B00028D91A4623F003010B68DF070DD4886826
:1078C000032B00F001008860F4D8D4F80022032ACA
:1078D00094BF0023012303EA5206002E40F0718377
:1078E00022F0020204F50071C4F80022032A09D92B
:1078F00022F0030002F00302036813F0010308BF43
:1079000043600A60D4F8E8213B49032AC4F888118F
:1079100094BF0023012313EA520640F0958222F01F
:107920000203032BC4F8E83128D91A4623F00301D7
:107930000B68D8070DD48868032B00F0010088601D
:10794000F4D8D4F8E821032A94BF0023012303EAE2
:107950005206002E40F0308322F0020204F5F4714A
:10796000C4F8E821032A09D922F0030002F0030237
:10797000036813F0010308BF43600A60D4F8E021F4
:10798000032A94BF0023012313EA520640F05582D4
:1079900022F00203032BC4F8E0312FD91A4623F05A
:1079A00003010B68DF070DD48868032B00F001008A
:1079B0008860F4D8D4F8E021032A94BF002301237F
:1079C00003EA5206002E40F0F28222F0020204F591
:1079D000F071C4F8E021032A10D922F0030002F06C
:1079E0000302036813F0010308BF43600A6005E067
:1079F0001C520530585105300C510530D4F8D021B7
:107A0000032A94BF0023012313EA520640F0A68202
:107A100022F00203032BC4F8D03128D91A4623F0F0
:107A200003010B68D8070DD48868032B00F0010010
:107A30008860F4D8D4F8D021032A94BF002301230E
:107A400003EA5206002E40F0AD8222F0020204F555
:107A5000E871C4F8D021032A09D922F0030002F00A
:107A60000302036813F0010308BF43600A60D4F8FF
:107A7000C021032A94BF0023012313EA520640F0D9
:107A8000668222F00203032BC4F8C03128D91A46BB
:107A900023F003010B68DF070DD48868032B00F087
:107AA00001008860F4D8D4F8C021032A94BF0023D1
:107AB000012303EA5206002E40F06F8222F00202F8
:107AC00004F5E071C4F8C021032A09D922F00300AB
:107AD00002F00302036813F0010308BF43600A6069
