S02B00002F686F6D652F737476736C2F446F63756D656E74732F444F54525553542F506F7274696E675465730E
S31530002000000034207D2400300D25003011250030AD
S315300020100925003009250030092500300000000070
S31530002020000000000000000000000000D164013014
S3153000203009250030000000006165013079A90030C3
S315300020402125003025250030292500302D2500306A
S315300020503125003035250030392500303D2500301A
S315300020604125003045250030492500304D250030CA
S315300020705125003055250030592500305D2500307A
S31530002080612500300925003009250030092500304A
S3153000209065250030692500306D250030712500300A
S315300020A075250030792500307D25003081250030BA
S315300020B085250030892500308D250030912500306A
S315300020C095250030992500309D250030A12500301A
S315300020D0A5250030A9250030AD250030B1250030CA
S315300020E0B5250030B9250030BD250030C12500307A
S315300020F0C5250030C9250030CD250030D12500302A
S31530002100D5250030D9250030092500300925003085
S3153000211009250030092500300925003065AE00302C
S315300021200925003009250030DD250030E125003055
S3153000213071AE003009250030092500300925003000
S3153000214009250030092500300925003009250030E1
S3153000215009250030092500300925003009250030D1
S31530002160092500300925003009250030E5250030E5
S31530002170E9250030ED250030F1250030F525003019
S31530002180F9250030FD2500300126003009250030C4
S315300021900925003009250030092500300925003091
S315300021A00925003009250030092500300925003081
S315300021B00925003009250030092500300925003071
S315300021C00925003005260030092500300925003064
S315300021D00925003009250030092500306DAE003064
S315300021E00925003009250030092500300925003041
S315300021F00925003009250030092600300D2600302B
S315300022000925003009250030092500300925003020
S315300022100925003009250030092500300925003010
S315300022200925003009250030092500300925003000
S3153000223009250030092500300925003009250030F0
S3153000224009250030092500301126003015260030CA
S3153000225009250030192600301D26003009250030AA
S315300022600925003021260030252600302926003069
S315300022702D26003031260030352600300925003035
S3153000228009250030092500300925003009250030A0
S315300022900925003009250030092500300925003090
S315300022A00925003009250030092500300925003080
S315300022B00925003009250030092500300925003070
S315300022C00925003009250030092500300925003060
S315300022D00925003009250030092500300925003050
S315300022E00925003009250030092500300925003040
S315300022F00925003009250030092500300925003030
S31530002300092500300925003009250030092500301F
S31530002310092500300925003009250030092500300F
S3153000232009250030092500300925003009250030FF
S3153000233009250030092500300925003009250030EF
S3153000234009250030092500300925003009250030DF
S3153000235009250030092500300925003009250030CF
S31530002360392600303D2600304126003045260030E3
S3153000237009250030092500300925003009250030AF
S315300023800925003009250030492600304D26003019
S3153000239051260030552600300925003009250030F9
S315300023A0592600305D2600300925003009250030D9
S315300023B0092500300925003009250030092500306F
S315300023C0092500300925003009250030092500305F
S315300023D0092500300925003009250030092500304F
S315300023E0092500300925003009250030092500303F
S315300023F0092500300925003009250030FFFFFFFF91
S31530002400A3F5803A704700BF174B002B08BF134B1C
S315300024109D46FFF7F5FF00218B460F461348144AB9
S31530002420121A50F029FF0E4B002B00D098470D4B57
S31530002430002B00D098470020002104000D000D48E5
S31530002440002802D00C4850F0A9FF50F067FF20005A
S31530002450290004F087F850F04BFD00BF000008005B
S315300024600000000000000000000034202802008038
S31530002470283D00809D3305306D33053072B61648E1
S31530002480164901600A6882F308881548804715495D
S31530002490154A164B9A42BEBF51F8040B42F8040B4C
S315300024A0F8E7134A134B9A42BEBF51F8040B42F871
S315300024B0040BF8E7104B00209A42BCBF42F8040BDD
S315300024C0FAE70E490E4A00209142BCBF41F8040B90
S315300024D0FAE762B60B48804708ED00E0002000308E
S315300024E061FF0030204E063000000080240200805C
S315300024F00000008300000083000020832802008053
S31530002500283D008009240030FFF7FEBF54480047BD
S3153000251054480047544800475448004754480047F9
S3153000252054480047544800475448004754480047E9
S3153000253054480047544800475448004754480047D9
S3153000254054480047544800475448004754480047C9
S3153000255054480047544800475448004754480047B9
S3153000256054480047544800475448004754480047A9
S315300025705448004754480047544800475448004799
S315300025805448004754480047544800475448004789
S315300025905448004754480047544800475448004779
S315300025A05448004754480047544800475448004769
S315300025B05448004754480047544800475448004759
S315300025C05448004754480047544800475448004749
S315300025D05448004754480047544800475448004739
S315300025E05448004754480047544800475448004729
S315300025F05448004754480047544800475448004719
S315300026005448004754480047544800475448004708
S3153000261054480047544800475448004754480047F8
S3153000262054480047544800475448004754480047E8
S3153000263054480047544800475448004754480047D8
S3153000264054480047544800475448004754480047C8
S3153000265054480047544800475448004754480047B8
S315300026600D25003011250030D1640130616501300F
S3153000267079A90030092500300925003009250030B8
S31530002680092500300925003009250030092500309C
S31530002690092500300925003009250030092500308C
S315300026A0092500300925003009250030092500307C
S315300026B009250030092500302133013041330130FE
S315300026C06133013081330130A1330130C133013000
S315300026D0E1330130013401302134013041340130ED
S315300026E06134013081340130912D0130D92D0130E2
S315300026F0212E0130692E0130B12E0130F92E0130F4
S31530002700092500300925003009250030092500301B
S31530002710092500300925003009250030092500300B
S3153000272009250030092500300925003009250030FB
S3153000273009250030FD3B01300925003009250030E0
S3153000274009250030092500300925003009250030DB
S3153000275009250030092500300925003009250030CB
S3153000276009250030092500300925003009250030BB
S3153000277009250030092500300925003009250030AB
S31530002780092500300925003009250030092500309B
S31530002790092500300925003009250030092500308B
S315300027A0092500300925003009250030092500307B
S315300027B009250030F1B5002A4BD011F0030306D0BD
S315300027C011F8014B013A00F8014B42D0F5E710F011
S315300027D003031BD1102A04DB103AF0C9102AF0C0CB
S315300027E0FAD2130744BF30C930C0530744BF51F83B
S315300027F0044B40F8044B930744BF31F8024B20F8A2
S31530002800024BD30744BF0C78047022E0C3070AD4C6
S31530002810042A16D351F8044B043A20F8024B250CFF
S3153000282020F8025BF4E7042A0BD351F8044B043A40
S3153000283000F8014B250A20F8025B260E00F8016BE2
S31530002840F1E7002A1EBF11F8014B00F8014B013A9F
S31530002850F7D1F1BD53B94AB9002908BF00281CBFCA
S315300028604FF0FF314FF0FF3000F00CB8ADF1080CEF
S315300028706DE904CE4DF052FEDDF804E0DDE90223C9
S3153000288004B07047704700BF7BB972B90029BEBF2C
S3153000289000204FF0004106E008BF00281CBF6FF053
S315300028A000414FF0FF30FFF7EDBFADF1080C6DE999
S315300028B004CE002909DB002B1ADB4DF02FFEDDF8A4
S315300028C004E0DDE9022304B07047404261EB410188
S315300028D0002B1BDB4DF022FEDDF804E0DDE90223A0
S315300028E004B0404261EB4101524263EB430370470F
S315300028F0524263EB43034DF011FEDDF804E0DDE9AF
S31530002900022304B0404261EB41017047524263EB0F
S3153000291043034DF003FEDDF804E0DDE9022304B0A5
S31530002920524263EB43037047EC46A0E8F05F80EC1D
S31530002930108B4FF000007047B0E8F05FE54690EC42
S31530002940108B080008BF0120704700BF0000000050
S315300029500000000000000000000000000000000041
S3153000296002780B78012A28BF9A4240F0D8806DE968
S31530002970044540EA0104CDE902676FF0000C4FEAE6
S3153000298044721AB380EA010414F0070F6BD100F0D9
S31530002990070420F0070004F0030521F007014FEA91
S315300029A0C505F0E8042314F0040FF1E804670CFAC7
S315300029B005F462EA040266EA04060BD063EA04030D
S315300029C0624667EA0407664604E000BFF0E804237F
S315300029D0F1E8046782FA4CF582EA0604A4FA8CF42C
S315300029E06CBB83FA4CF583EA0705A5FA8CF595B9E5
S315300029F050E9022351E9026782FA4CF582EA06046D
S31530002A00A4FA8CF483FA4CF583EA0705A5FA8CF51B
S31530002A102543DBD09CB92DBAB5FA85F424F00704EA
S31530002A2027FA04F1DDE9026723FA04F303F0FF0025
S31530002A3001F0FF01FDE80445A0EB0100704724BA20
S31530002A40B4FA84F424F0070426FA04F1DDE90267C7
S31530002A5022FA04F202F0FF0001F0FF01FDE804451E
S31530002A60A0EB0100704714F0030F3CD110F00304C3
S31530002A7028D150F8082B51F8083B82FA4CF582EAF7
S31530002A800305A5FA8CF55DB950F8042C51F8043CD1
S31530002A9082FA4CF582EA0305A5FA8CF5002DE8D0CA
S31530002AA02DBAB5FA85F424F0070423FA04F122FA94
S31530002AB004F202F0FF0001F0FF01FDE80445A0EB4F
S31530002AC0010070474FEAC40420F0030050F8082B89
S31530002AD021F0030151F8083B0CFA04F462EA0402CF
S31530002AE063EA0403C9E710F003041DD0A1EB040127
S31530002AF020F00300E40750F8042B06D012D28B786E
S31530002B005FFAA2F4E41A06D12BB1CB785FFAB2F4AD
S31530002B10E41A00D133B920465DF8104B7047A2EB6A
S31530002B200300704701F1040150F8042BCC0721F063
S31530002B30030151F8043B48D824D222F07F4482FA6C
S31530002B404CF594EA1325A5FA8CF50AD165B951F8F6
S31530002B50043B84EA0204B4EB036F0ED150F8042B25
S31530002B60EBE74FEA132355E035F07F454DD1087832
S31530002B70FDE80445C0F1000070474FEA126203F0E9
S31530002B80FF0347E002EA1C4482FA4CF594EA134507
S31530002B90A5FA8CF50AD165B951F8043B84EA0204EA
S31530002BA0B4EB034F0CD150F8042BEBE74FEA134349
S31530002BB030E015EA1C4528D10B884FEA124229E04D
S31530002BC04FEA124203EA1C4324E002F0FF0482FA81
S31530002BD04CF594EA1365A5FA8CF50AD165B951F826
S31530002BE0043B84EA0204B4EB032F09D150F8042BDA
S31530002BF0EBE74FEA13630DE015F0FF0F05D10B68D5
S31530002C004FEA122223F07F4304E04FF00000FDE844
S31530002C100445704712BA1BBA82FA4CF482EA0304AE
S31530002C20A4FA8CF5B5FA85F402FA04F203FA04F341
S31530002C304FEA1260FDE80445A0EB1360704700BF11
S31530002C4030B490F800F020F007016FF0000C10F06F
S31530002C50070491F820F040F048804FF000046FF000
S31530002C600700D1E9002391F840F000F1080082FA1C
S31530002C704CF2A4FA8CF283FA4CF3A2FA8CF34BBBE7
S31530002C80D1E9022382FA4CF200F10800A4FA8CF260
S31530002C9083FA4CF3A2FA8CF3E3B9D1E9042382FA2E
S31530002CA04CF200F10800A4FA8CF283FA4CF3A2FA43
S31530002CB08CF37BB9D1E9062301F1200182FA4CF27B
S31530002CC000F10800A4FA8CF283FA4CF3A2FA8CF3E2
S31530002CD0002BC6D0002A04BF04301A4612BAB2FA04
S31530002CE082F200EBD20030BC7047D1E9002304F009
S31530002CF00305C4F100004FEAC50514F0040F91F83E
S31530002D0040F00CFA05F562EA05021CBF63EA0503DA
S31530002D1062464FF00004AAE781F0004102E000BFAE
S31530002D2083F0004330B54FEA41044FEA430594EA55
S31530002D30050F08BF90EA020F1FBF54EA000C55EA90
S31530002D40020C7FEA645C7FEA655C00F0E2804FEA61
S31530002D505454D4EB5555B8BF6D420CDD2C4480EA43
S31530002D60020281EA030382EA000083EA010180EA73
S31530002D70020281EA0303362D88BF30BD11F0004FC1
S31530002D804FEA01314FF4801C4CEA113102D04042F7
S31530002D9061EB410113F0004F4FEA03334CEA133332
S31530002DA002D0524263EB430394EA050F00F0A7804A
S31530002DB0A4F10104D5F1200E0DDB02FA0EFC22FA45
S31530002DC005F2801841F1000103FA0EF2801843FA39
S31530002DD005F359410EE0A5F120050EF1200E012A2A
S31530002DE003FA0EFC28BF4CF0020C43FA05F3C01868
S31530002DF051EBE37101F0004507D54FF0000EDCF1E1
S31530002E00000C7EEB00006EEB0101B1F5801F1BD389
S31530002E10B1F5001F0CD349085FEA30004FEA3C0C8D
S31530002E2004F101044FEA445212F5800F80F09A8083
S31530002E30BCF1004F08BF5FEA500C50F1000041EB87
S31530002E40045141EA050130BD5FEA4C0C404141EB8B
S31530002E500101013C28BFB1F5801FE9D291F0000F86
S31530002E6004BF01460020B1FA81F308BF2033A3F135
S31530002E700B03B3F120020CDA0C3208DD02F1140C2C
S31530002E80C2F10C0201FA0CF021FA02F10CE002F167
S31530002E901402D8BFC2F1200C01FA02F120FA0CFC60
S31530002EA0DCBF41EA0C019040E41AA2BF01EB0451A9
S31530002EB0294330BD6FEA04041F3C1CDA0C340EDCA7
S31530002EC004F11404C4F1200220FA04F001FA02F3EA
S31530002ED040EA030021FA04F345EA030130BDC4F1A8
S31530002EE00C04C4F1200220FA02F001FA04F340EA9D
S31530002EF00300294630BD21FA04F0294630BD94F04E
S31530002F00000F83F4801306BF81F480110134013D34
S31530002F104EE77FEA645C18BF7FEA655C29D094EAA5
S31530002F20050F08BF90EA020F05D054EA000C04BF23
S31530002F301946104630BD91EA030F1EBF002100200E
S31530002F4030BD5FEA545C05D14000494128BF41F0AD
S31530002F50004130BD14F580043CBF01F5801130BD11
S31530002F6001F0004545F0FE4141F470014FF000009C
S31530002F7030BD7FEA645C1ABF194610467FEA655C4D
S31530002F801CBF0B46024650EA013406BF52EA0335EF
S31530002F9091EA030F41F4002130BD00BF90F0000FDD
S31530002FA004BF0021704730B54FF4806404F1320419
S31530002FB04FF000054FF0000150E700BF90F0000FD2
S31530002FC004BF0021704730B54FF4806404F13204F9
S31530002FD010F0004548BF40424FF000013EE700BFC9
S31530002FE042004FEAE2014FEA31014FEA02701FBF59
S31530002FF012F07F4393F07F4F81F06051704732F08B
S315300030007F4208BF704793F07F4F04BF41F40021E1
S31530003010704730B54FF4607401F0004521F000413F
S315300030201CE700BF50EA010208BF704730B54FF0C9
S3153000303000050AE050EA010208BF704730B511F0CA
S31530003040004502D5404261EB41014FF4806404F102
S3153000305032045FEA915C3FF4D8AE4FF003025FEA88
S31530003060DC0C18BF03325FEADC0C18BF033202EB0C
S31530003070DC02C2F1200300FA03FC20FA02F001FA66
S3153000308003FE40EA0E0021FA02F11444BDE600BF09
S3153000309000F1340191E838009C46A6464CF8045DB0
S315300030A090E8FF0FE54600BD90EC210B704700BF5E
S315300030B080EC210B704700BF90EC200B704700BFAF
S315300030C080EC200B704700BFD0EC200B704700BF60
S315300030D0C0EC200B704700BFF0EC0201F0EC02119F
S315300030E0F0EC0221F0EC0231F0EC0241F0EC02514E
S315300030F0F0EC0261F0EC0271F0EC0281F0EC02913E
S31530003100F0EC02A1F0EC02B1F0EC02C1F0EC02D12D
S31530003110F0EC02E1F0EC02F1704700BFE0EC0201A6
S31530003120E0EC0211E0EC0221E0EC0231E0EC02418D
S31530003130E0EC0251E0EC0261E0EC0271E0EC02817D
S31530003140E0EC0291E0EC02A1E0EC02B1E0EC02C16D
S31530003150E0EC02D1E0EC02E1E0EC02F1704700BFB6
S31530003160B0FC0181B0FC0191B0FC01A1B0FC01B111
S31530003170704700BFA0FC0181A0FC0191A0FC01A119
S31530003180A0FC01B1704700BFEC4600B52DE90050F8
S315300031902DE9FF1F4FF000032DE90C0001A950F077
S315300031A0E7FADDF840E012B0704700BFEC4600B5F4
S315300031B02DE900502DE9FF1F4FF000032DE90C00DB
S315300031C001A950F011FBDDF840E012B0704700BFA6
S315300031D0EC4600B52DE900502DE9FF1F4FF00003F6
S315300031E02DE90C0001A950F01FFBDDF840E012B0CC
S315300031F0704700BFEC4600B52DE900502DE9FF1FA2
S315300032004FF000032DE90C0001AB50F0E5FADDF884
S3153000321040E012B0704700BFEC4600B52DE90050D3
S315300032202DE9FF1F4FF000032DE90C0001AA50F0E5
S3153000323057FBDDF840E012B0704700BF0348044B3F
S31530003240834202D0034B03B11847704724020080F3
S3153000325024020080000000000548064B1B1AD90FD7
S3153000326001EBA301491002D0034B03B11847704755
S3153000327024020080240200800000000010B5064CB5
S31530003280237843B9FFF7DAFF044B13B10448AFF3A1
S3153000329000800123237010BD28020080000000004A
S315300032A02049063008B5054B1BB105490548AFF333
S315300032B00080BDE80840FFF7CFBF00BF0000000028
S315300032C02C0200802049063013F074BA13F028BB64
S315300032D00020704700207047704700BFFEE700BFF0
S315300032E0704700BF704700BF704700BF704700BFD0
S315300032F0012070470020704701207047704700BF9B
S31530003300704700BF704700BF704700BF704700BFAF
S31530003310704700BF704700BF406B401AB0FA80F06C
S3153000332040097047436B03B170474163704700BF34
S31530003330406B704700B593B0124C68461DF046F8A6
S315300033402368BFF35B8FDB070AD50F4968461DF04C
S3153000335071FC68461EF0E6F90A2012F0C1F9F8E76A
S3153000336020464DF03BFA0028EFD0074805F058FDCF
S31530003370064A07490448FFF7ABFF20464DF04AFAA4
S31530003380E3E700BF4C02008050020080000000805E
S3153000339065560030036810B5044682B063B19A684A
S315300033A0824207D000237E215B201A46009333F0F9
S315300033B051FF236800229A60204602B010BD00BF3C
S315300033C070B58AB00D4604462422002168464FF077
S315300033D053FF4FF07E5300262846009369460493E8
S315300033E008932B688DF82460DB689847EC46A64630
S315300033F0BCE80F004EF8086BAEE80F00BCE80F00D3
S31530003400AEE80F009CE803004EF8040B20468EF819
S3153000341000100AB070BD00BF054B10B5044640F829
S31530003420083B1FF0A1FE204620F03CFC204610BD94
S3153000343084440530074B10B5044640F8083B1FF06E
S3153000344093FE204620F02EFC204614214DF0C4F980
S31530003450204610BD84440530F0B5174E83B0041DA8
S315300034600F463568BFF35B8F15F0010512D0134B4D
S31530003470186810B90CE0406850B1036823F00303B4
S315300034809C42F8D1394603B0BDE8F04021F00ABF7E
S3153000349003B0F0BD30464DF0A1F9084B0028E7D017
S315300034A01846074A07491D600193FFF711FF30465A
S315300034B04DF0B0F9019BDBE7440200804802008002
S315300034C00000008095330030836C9A0730B589B0A0
S315300034D019D523F003040394ACB1114D06234830BB
S315300034E003AA8DF814302B680494013306900792A2
S315300034F0B3F57A7F2B600ADC236804A8984700234B
S315300035002B6009B030BD03F0010009B030BD002397
S315300035101E21FC201A46009333F09CFEECE700BFD8
S31530003520183A008070B50446806B88B081071BD589
S3153000353020F003060396BEB1264D04F13803062269
S31530003540049606932B688DF8142003AA013307924C
S31530003550B3F57A7F2B6028DC336804A898470023BC
S315300035602B6028B108B070BD00F001000028F9D1F9
S31530003570A36C9A0721D523F003060396EEB1154DB9
S315300035800623483403AA8DF814302B680496013389
S3153000359007920694B3F57A7F2B6012DC336804A861
S315300035A0984700232B6008B070BD00231E21FC20F5
S315300035B01A46009333F04EFECEE703F0010008B012
S315300035C070BD0346024600901E21FC2033F042FEB9
S315300035D0E4E700BF183A0080F0B5856B87B0044643
S315300035E000F13806AA071ED5032D1CD9EB071AD5CC
S315300035F000F13C02134F25F00305002305923A688B
S315300036000496013202958DF80C30B2F57A7F3A6025
S3153000361010DC2B6802A8984700233B6018B1A36BD7
S3153000362023F00103A363304622F0E0F894F83C001F
S3153000363007B0F0BD1A461E21FC20009333F00AFE77
S31530003640E7E700BF183A0080F0B50569044600F197
S3153000365010064163A80789B003D5032D01D9E907C0
S315300036602AD4304622F0C2F8237DE3B92069820796
S315300036701FD520F003050395DDB103AA244F06219B
S31530003680049507923A68069601328DF81410B2F511
S315300036907A7F3A602DDC2B6804A8984700233B607C
S315300036A008B109B0F0BD204609B0BDE8F0401BF0C6
S315300036B075BF00F00100F3E704F11402144F25F052
S315300036C00305002307923A680696013204958DF871
S315300036D01430B2F57A7F3A6012DC2B6804A898472A
S315300036E000233B600028BCD0236923F0010323610B
S315300036F0B7E71A461E21FC20009333F0ABFDCAE72C
S315300037001A461E21FC20009333F0A4FDE5E700BFE6
S31530003710183A0080000000002DE9F0410446806C24
S315300037200F46830704F148062DED068B88B057D532
S3153000373020F003050395002D52D00623DFF858827A
S3153000374004958DF8143003AB06960793D8F80030FD
S315300037500133B3F57A7FC8F8003000F3AD802B68BB
S3153000376004A898470023C8F8003000283CD1A36C41
S3153000377013F0020252D0032B40F2A68023F0030549
S31530003780DFF81482022304958DF81430D8F800300F
S315300037900133B3F57A7FC8F80030CDE9066700F318
S315300037A0D8802B6804A898470023C8F80030D8B9C9
S315300037B0A36C9D0703F0020240F1DB80032B40F23D
S315300037C0D88023F00103A36494ED149B97ED008B0E
S315300037D0B4EE498BF1EE10FA29D784ED148B4AE01A
S315300037E000F001000028C2D0656B2B689A070DD512
S315300037F0032B0BD923F0030603F00103726822F082
S3153000380003021A432A607268032A5FD8002384F8B9
S31530003810703008B0BDEC068BBDE8F08194ED149B9A
S3153000382097ED008BB4EE498BF1EE10FA64D6B0EE1C
S31530003830C97B9FED556BB4EE467BF1EE10FA16DC84
S31530003840B0EEC87BB4EE467BF1EE10FA0FDCB5EE87
S31530003850C09BF1EE10FAB5EEC08B4CBF01200020B4
S31530003860F1EE10FA4CBF01210021884249D084ED97
S31530003870148B002A42D023F003050395002D3DD04A
S315300038800623DFF8148104958DF8143003AB0696C1
S315300038900793D8F800300133B3F57A7FC8F8003093
S315300038A05FDC2B6804A8984700230146C8F800302F
S315300038B0304620F0F5FD97E700231E21FC201A46FE
S315300038C0009333F0C7FC4AE702227DE722F0030774
S315300038D03B6813F001030BD1311D7868884206D05E
S315300038E080211A460093084633F0B4FC72687D6036
S315300038F002F00302726089E784ED148B03F0010154
S31530003900D6E739EE480B4EF0E7FCB0EE407BB0EE32
S31530003910490BB0EE479B4EF0DFFCB0EE40ABB0EE5D
S31530003920480B4EF0D9FCB0EE401BB0EE4A0B4EF0D1
S3153000393091FC9FED177B20EE077BB4EEC79BF1EE33
S3153000394010FA7FF651AFA36C97ED008B03F00202AD
S315300039508DE70346024600901E21FC2033F07AFCA8
S315300039601FE700231E21FC201A46009333F072FC19
S3153000397097E794ED149B97ED008BB4EE489BF1EEF0
S3153000398010FAFFF554AF72E7FFFFFFFFFFFFEF7F3F
S31530003990BBBDD7D9DF7CDB3D183A00802DE9F0413D
S315300039A08568044600F1080686B0A80703D5032DBE
S315300039B001D9E9073BD4304604F1100721F016FF50
S315300039C02669B4F90C50B20722D5032E20D9F30755
S315300039D01ED5DFF8B88004F1140226F00306002362
S315300039E00592D8F800200497013202968DF80C30F3
S315300039F0B2F57A7FC8F8002041DC336802A89847D0
S31530003A000023C8F8003018B1236923F0010323617D
S31530003A103846ADB221F0EAFEB4F9143000209BB23C
S31530003A2065F30F0063F31F4006B0BDE8F08104F183
S31530003A300C02DFF8588025F0030500230592D8F8EC
S31530003A4000200496013202958DF80C30B2F57A7F5B
S31530003A50C8F800200CDC2B6802A898470023C8F869
S31530003A6000300028A7D0A36823F00103A360A2E7A3
S31530003A701A461E21FC20009333F0ECFBEBE71A4686
S31530003A801E21FC20009333F0E5FBB6E7183A0080A0
S31530003A908269274B30B512F0020583B004460360C5
S31530003AA00AD0032A3DD800232F2140F28D101A4622
S31530003AB0009333F0CFFBA26922F00203032BA361FC
S31530003AC01DD91A46002523F003010B68D80705D403
S31530003AD08868032B00F001008860F4D8DDB122F04D
S31530003AE0030151F8042F032A09D922F0030002F00A
S31530003AF00302036813F0010308BF43600A600D4BED
S31530003B00204640F8083B1FF02FFB204620F0CAF82D
S31530003B10204603B030BD22F0020204F11801A26142
S31530003B20E1E722F003035B68032BCCD8E7E700BF5D
S31530003B309C440530844405308269294B30B512F0F7
S31530003B40020583B0044603600AD0032A41D8002315
S31530003B502F2140F28D101A46009333F07BFBA26979
S31530003B6022F00203032BA3611DD91A46002523F048
S31530003B7003010B68D80705D48868032B00F00100D1
S31530003B808860F4D8FDB122F0030151F8042F032ADE
S31530003B9009D922F0030002F00302036813F001038F
S31530003BA008BF43600A600F4B204640F8083B1FF0C1
S31530003BB0DBFA204620F076F8204628214CF00CFE21
S31530003BC0204603B030BD22F0020204F11801A26192
S31530003BD0DDE722F003035B68032BC8D8E3E700BFB9
S31530003BE09C44053084440530826A474B30B512F028
S31530003BF0020583B0044603600AD0032A7ED8002328
S31530003C002F2140F28D101A46009333F023FBA26A1F
S31530003C1022F00203032BA3621ED91A46002523F095
S31530003C2003010B68D80705D48868032B00F0010020
S31530003C308860F4D8002D55D022F0030151F8042FB6
S31530003C40032A09D922F0030002F00302036813F0B5
S31530003C50010308BF43600A60A2692C4B12F00205CB
S31530003C6023600AD0032A43D800232F2140F28D1037
S31530003C701A46009333F0EEFAA26922F00203032BC0
S31530003C80A3611DD91A46002523F003010B68D80716
S31530003C9005D48868032B00F001008860F4D8DDB1C4
S31530003CA022F0030151F8042F032A09D922F0030028
S31530003CB002F00302036813F0010308BF43600A6091
S31530003CC0134B204640F8083B1FF04EFA20461FF0B3
S31530003CD0E9FF204603B030BD22F0020204F118019C
S31530003CE0A261E1E722F0020204F12801A262A7E70D
S31530003CF022F003035B68032BC6D8E1E722F0030307
S31530003D005B68032B8BD8A7E7B44405309C44053059
S31530003D1084440530826A4A4B30B512F0020583B0CE
S31530003D20044603600BD0032A00F2838000232F2140
S31530003D3040F28D101A46009333F08CFAA26A22F0C4
S31530003D400203032BA3621ED91A46002523F0030172
S31530003D500B68D80705D48868032B00F0010088600B
S31530003D60F4D8002D59D022F0030151F8042F032A3C
S31530003D7009D922F0030002F00302036813F00103AD
S31530003D8008BF43600A60A2692E4B12F00205236019
S31530003D900AD0032A47D800232F2140F28D101A4625
S31530003DA0009333F057FAA26922F00203032BA36182
S31530003DB01DD91A46002523F003010B68D80705D410
S31530003DC08868032B00F001008860F4D8FDB122F03A
S31530003DD0030151F8042F032A09D922F0030002F017
S31530003DE00302036813F0010308BF43600A60164BF1
S31530003DF0204640F8083B1FF0B7F920461FF052FF27
S31530003E00204638214CF0E8FC204603B030BD22F085
S31530003E10020204F11801A261DDE722F0020204F188
S31530003E202801A262A3E722F003035B68032BC2D802
S31530003E30DDE722F003035B68032B87D8A3E700BFD7
S31530003E40B44405309C44053084440530826B6A4B5B
S31530003E5030B512F0020583B0044603600BD0032A56
S31530003E6000F2B68000232F2140F28D101A460093BF
S31530003E7033F0F0F9A26B22F00203032BA3631FD9B0
S31530003E801A46002523F003010B68D80705D4886845
S31530003E90032B00F001008860F4D8002D00F09280EA
S31530003EA022F0030151F8042F032A09D922F0030026
S31530003EB002F00302036813F0010308BF43600A608F
S31530003EC0A26A4E4B12F0020523600BD0032A00F291
S31530003ED08C8000232F2140F28D101A46009333F048
S31530003EE0B9F9A26A22F00203032BA3621ED91A463D
S31530003EF0002523F003010B68D80705D48868032B07
S31530003F0000F001008860F4D8002D55D022F003016E
S31530003F1051F8042F032A09D922F0030002F00302D4
S31530003F20036813F0010308BF43600A60A269344B8B
S31530003F3012F0020523600AD0032A50D800232F211D
S31530003F4040F28D101A46009333F084F9A26922F0BC
S31530003F500203032BA3611DD91A46002523F0030162
S31530003F600B68D80705D48868032B00F001008860F9
S31530003F70F4D8DDB122F0030151F8042F032A09D910
S31530003F8022F0030002F00302036813F0010308BFB6
S31530003F9043600A601B4B204640F8083B1FF0E4F8AC
S31530003FA020461FF07FFE204603B030BD22F00202CD
S31530003FB004F11801A261E1E722F0020204F12801BE
S31530003FC0A262A7E722F0020204F13801A2636BE78E
S31530003FD022F003035B68032B3FF654AF70E722F001
S31530003FE003035B68032BB9D8D4E722F003035B687D
S31530003FF0032B3FF67EAF99E7CC440530B444053009
S315300040009C44053084440530826B6C4B30B512F0DD
S31530004010020583B0044603600BD0032A00F2BA804F
S3153000402000232F2140F28D101A46009333F012F9F7
S31530004030A26B22F00203032BA3631FD91A46002575
S3153000404023F003010B68D80705D48868032B00F0EA
S3153000405001008860F4D8002D00F0968022F003012C
S3153000406051F8042F032A09D922F0030002F0030283
S31530004070036813F0010308BF43600A60A26A504B1D
S3153000408012F0020523600BD0032A00F29080002341
S315300040902F2140F28D101A46009333F0DBF8A26AD6
S315300040A022F00203032BA3621ED91A46002523F001
S315300040B003010B68D80705D48868032B00F001008C
S315300040C08860F4D8002D59D022F0030151F8042F1E
S315300040D0032A09D922F0030002F00302036813F021
S315300040E0010308BF43600A60A269364B12F002052D
S315300040F023600AD0032A54D800232F2140F28D1092
S315300041001A46009333F0A6F8A26922F00203032B75
S31530004110A3611DD91A46002523F003010B68D80781
S3153000412005D48868032B00F001008860F4D8FDB10F
S3153000413022F0030151F8042F032A09D922F0030093
S3153000414002F00302036813F0010308BF43600A60FC
S315300041501D4B204640F8083B1FF006F820461FF05E
S31530004160A1FD204640214CF037FB204603B030BD40
S3153000417022F0020204F11801A261DDE722F0020208
S3153000418004F12801A262A3E722F0020204F1380109
S31530004190A26367E722F003035B68032B3FF650AF59
S315300041A06CE722F003035B68032BB5D8D0E722F027
S315300041B003035B68032B3FF67AAF95E7CC440530B3
S315300041C0B44405309C44053084440530000000007A
S315300041D02DE9F0418569044600F118070E46A80717
S315300041E02DED048B86B003D5032D01D9E9074CD4C8
S315300041F0384621F0FBFA94ED088BB4EE488BF1EE9D
S3153000420010FA0DD6B0EEC87B9FED4B6BB4EE467B05
S31530004210F1EE10FA04DCB5EEC08BF1EE10FA55D59E
S31530004220A569AA0722D5032D20D9EB071ED5DFF8BD
S31530004230208104F1200225F0030500230592D8F8E9
S3153000424000200497013202958DF80C30B2F57A7F52
S31530004250C8F8002067DC2B6802A898470023C8F806
S31530004260003018B1A36923F00103A361384621F069
S31530004270BDFA304694ED080BB7EEC00B06B0BDEC78
S31530004280048BBDE8F04132F023B8DFF8C48004F186
S31530004290200225F0030500230592D8F80020049764
S315300042A0013202958DF80C30B2F57A7FC8F80020CD
S315300042B032DC2B6802A898470023C8F80030002863
S315300042C096D0A36923F00103A36191E7B0EE480BC2
S315300042D04EF002F8B0EE407BB0EE480BB0EE478BB6
S315300042E04DF0FAFFB0EE409B9FED150B4DF0F4FF0D
S315300042F0B0EE401BB0EE490B4DF0ACFF9FED127B9C
S3153000430020EE077BB4EEC78BF1EE10FA88D806B0F4
S31530004310BDEC048BBDE8F0811A461E21FC200093CB
S3153000432032F098FFC5E71A461E21FC20009332F082
S3153000433091FF90E7AFF30080FFFFFFFFFFFFEF7FB6
S315300043400000000000000000BBBDD7D9DF7CDB3D9C
S31530004350183A0080026E874B30B512F0020583B0F2
S31530004360044603600BD0032A00F2F08000232F218D
S3153000437040F28D101A46009332F06CFF226E22F016
S315300043800203032B23661FD91A46002523F00301A7
S315300043900B68D80705D48868032B00F001008860C5
S315300043A0F4D8002D00F0C58022F0030151F8042F17
S315300043B0032A09D922F0030002F00302036813F03E
S315300043C0010308BF43600A60A26D12F002050BD0EC
S315300043D0032A00F2B48000232F2140F28D101A46B2
S315300043E0009332F037FFA26D22F00203032BA36550
S315300043F01FD91A46002523F003010B68D80705D4C8
S315300044008868032B00F001008860F4D8002D00F096
S315300044108A8022F0030151F8042F032A09D922F0A9
S31530004420030002F00302036813F0010308BF436080
S315300044300A60A26C12F002050BD0032A00F29380B8
S3153000444000232F2140F28D101A46009332F002FFDE
S31530004450A26C22F00203032BA3641ED91A46002550
S3153000446023F003010B68D80705D48868032B00F0C6
S3153000447001008860F4D8002D4FD022F0030151F8A6
S31530004480042F032A09D922F0030002F0030203683D
S3153000449013F0010308BF43600A60A26B12F00205F5
S315300044A00AD0032A59D800232F2140F28D101A46FC
S315300044B0009332F0CFFEA26B22F00203032BA363EC
S315300044C01DD91A46002523F003010B68D80705D4F9
S315300044D08868032B00F001008860F4D8BDB122F063
S315300044E0030151F8042F032A09D922F0030002F000
S315300044F00302036813F0010308BF43600A601E4BD2
S31530004500204623601BF0A0FA204603B030BD22F0CF
S31530004510020204F13801A263E5E722F0020204F157
S315300045204801A264ADE722F0020204F15801A26507
S3153000453073E722F0020204F16001226638E722F0C6
S3153000454003035B68032B3FF656AF72E722F0030393
S315300045505B68032B3FF61AAF36E722F003035B683E
S31530004560032BB0D8CBE722F003035B68032B3FF66F
S3153000457077AF92E7EC430530A0430530026E894BA6
S3153000458030B512F0020583B0044603600BD0032A1F
S3153000459000F2F48000232F2140F28D101A4600934A
S315300045A032F058FE226E22F00203032B23661FD907
S315300045B01A46002523F003010B68D80705D488680E
S315300045C0032B00F001008860F4D8002D00F0C9807C
S315300045D022F0030151F8042F032A09D922F00300EF
S315300045E002F00302036813F0010308BF43600A6058
S315300045F0A26D12F002050BD0032A00F2B880002318
S315300046002F2140F28D101A46009332F023FEA26D10
S3153000461022F00203032BA3651FD91A46002523F087
S3153000462003010B68D80705D48868032B00F0010016
S315300046308860F4D8002D00F08E8022F0030151F806
S31530004640042F032A09D922F0030002F0030203687B
S3153000465013F0010308BF43600A60A26C12F0020532
S315300046600BD0032A00F2978000232F2140F28D10C1
S315300046701A46009332F0EEFDA26C22F00203032BB1
S31530004680A3641ED91A46002523F003010B68D80708
S3153000469005D48868032B00F001008860F4D8002D1B
S315300046A053D022F0030151F8042F032A09D922F0FE
S315300046B0030002F00302036813F0010308BF4360EE
S315300046C00A60A26B12F002050AD0032A5DD80023D5
S315300046D02F2140F28D101A46009332F0BBFDA26BAB
S315300046E022F00203032BA3631DD91A46002523F0BB
S315300046F003010B68D80705D48868032B00F0010046
S315300047008860F4D8DDB122F0030151F8042F032A72
S3153000471009D922F0030002F00302036813F0010303
S3153000472008BF43600A60204B204623601BF08CF99B
S31530004730204678214CF050F8204603B030BD22F0A8
S31530004740020204F13801A263E1E722F0020204F129
S315300047504801A264A9E722F0020204F15801A265D9
S315300047606FE722F0020204F16001226634E722F09C
S3153000477003035B68032B3FF652AF6EE722F0030369
S315300047805B68032B3FF616AF32E722F003035B6814
S31530004790032BACD8C7E722F003035B68032B3FF645
S315300047A073AF8EE7EC430530A0430530AB4B30B5E5
S315300047B0044683B040F8803B1EF0D6FCA26F12F060
S315300047C002050BD0032A00F2268100232F2140F266
S315300047D08D101A46009332F03DFDA26F22F002038F
S315300047E0032BA3671FD91A46002523F003010B6854
S315300047F0D80705D48868032B00F001008860F4D808
S31530004800002D00F0028122F0030151F8042F032A13
S3153000481009D922F0030002F00302036813F0010302
S3153000482008BF43600A60226E8D4B12F0020523608A
S315300048300BD0032A00F20A8100232F2140F28D107B
S315300048401A46009332F006FD226E22F00203032B45
S3153000485023661FD91A46002523F003010B68D807B3
S3153000486005D48868032B00F001008860F4D8002D49
S3153000487000F0C58022F0030151F8042F032A09D92C
S3153000488022F0030002F00302036813F0010308BFAD
S3153000489043600A60A26D12F002050BD0032A00F2C3
S315300048A0CE8000232F2140F28D101A46009332F02D
S315300048B0D1FCA26D22F00203032BA3651FD91A4641
S315300048C0002523F003010B68D80705D48868032B2D
S315300048D000F001008860F4D8002D00F08A8022F0C4
S315300048E0030151F8042F032A09D922F0030002F0FC
S315300048F00302036813F0010308BF43600A60A26C29
S3153000490012F002050BD0032A00F2928000232F21E9
S3153000491040F28D101A46009332F09CFCA26C22F0C5
S315300049200203032BA3641ED91A46002523F0030184
S315300049300B68D80705D48868032B00F0010088601F
S31530004940F4D8002D4FD022F0030151F8042F032A5A
S3153000495009D922F0030002F00302036813F00103C1
S3153000496008BF43600A60A26B12F002050AD0032A20
S3153000497058D800232F2140F28D101A46009332F07A
S3153000498069FCA26B22F00203032BA3631DD91A46DE
S31530004990002523F003010B68D80705D48868032B5C
S315300049A000F001008860F4D8BDB122F0030151F85F
S315300049B0042F032A09D922F0030002F00302036808
S315300049C013F0010308BF43600A60264B204623607C
S315300049D01BF03AF8204603B030BD22F0020204F153
S315300049E03801A263E5E722F0020204F14801A2642D
S315300049F0ADE722F0020204F15801A26573E722F016
S31530004A00020204F16001226638E722F0020204F164
S31530004A107801A267FBE622F003035B68032B3FF6BF
S31530004A20E4AE00E722F003035B68032BB1D8CCE792
S31530004A3022F003035B68032B3FF678AF93E722F04F
S31530004A4003035B68032B3FF63CAF58E722F00303C2
S31530004A505B68032B3FF600AF1CE700BF38440530D8
S31530004A60EC430530A0430530AD4B30B5044683B03A
S31530004A7040F8803B1EF078FBA26F12F002050BD097
S31530004A80032A00F22A8100232F2140F28D101A4684
S31530004A90009332F0DFFBA26F22F00203032BA367F1
S31530004AA01FD91A46002523F003010B68D80705D411
S31530004AB08868032B00F001008860F4D8002D00F0E0
S31530004AC0068122F0030151F8042F032A09D922F076
S31530004AD0030002F00302036813F0010308BF4360CA
S31530004AE00A60226E8F4B12F0020523600BD0032A28
S31530004AF000F20E8100232F2140F28D101A460093CA
S31530004B0032F0A8FB226E22F00203032B23661FD954
S31530004B101A46002523F003010B68D80705D48868A8
S31530004B20032B00F001008860F4D8002D00F0C98016
S31530004B3022F0030151F8042F032A09D922F0030089
S31530004B4002F00302036813F0010308BF43600A60F2
S31530004B50A26D12F002050BD0032A00F2D280002398
S31530004B602F2140F28D101A46009332F073FBA26D5E
S31530004B7022F00203032BA3651FD91A46002523F022
S31530004B8003010B68D80705D48868032B00F00100B1
S31530004B908860F4D8002D00F08E8022F0030151F8A1
S31530004BA0042F032A09D922F0030002F00302036816
S31530004BB013F0010308BF43600A60A26C12F00205CD
S31530004BC00BD0032A00F2968000232F2140F28D105D
S31530004BD01A46009332F03EFBA26C22F00203032BFE
S31530004BE0A3641ED91A46002523F003010B68D807A3
S31530004BF005D48868032B00F001008860F4D8002DB6
S31530004C0053D022F0030151F8042F032A09D922F098
S31530004C10030002F00302036813F0010308BF436088
S31530004C200A60A26B12F002050AD0032A5CD8002370
S31530004C302F2140F28D101A46009332F00BFBA26BF7
S31530004C4022F00203032BA3631DD91A46002523F055
S31530004C5003010B68D80705D48868032B00F00100E0
S31530004C608860F4D8DDB122F0030151F8042F032A0D
S31530004C7009D922F0030002F00302036813F001039E
S31530004C8008BF43600A60284B204623601AF0DCFEDA
S31530004C90204690214BF0A0FD204603B030BD22F0D7
S31530004CA0020204F13801A263E1E722F0020204F1C4
S31530004CB04801A264A9E722F0020204F15801A26574
S31530004CC06FE722F0020204F16001226634E722F037
S31530004CD0020204F17801A267F7E622F003035B686B
S31530004CE0032B3FF6E0AEFCE622F003035B68032BB2
S31530004CF0ADD8C8E722F003035B68032B3FF674AFE9
S31530004D008FE722F003035B68032B3FF638AF54E797
S31530004D1022F003035B68032B3FF6FCAE18E700BFB7
S31530004D2038440530EC430530A0430530A14AD0F86D
S31530004D30A43030B5044683B002607BB100F1A402E2
S31530004D405968914208D000237E215B201A46009391
S31530004D5032F080FAD4F8A43000225A60D4F8A03069
S31530004D607BB104F1A0025968914208D000237E211C
S31530004D705B201A46009332F06DFAD4F8A030002248
S31530004D805A60D4F89C307BB104F19C025968914248
S31530004D9008D000237E215B201A46009332F05AFA5F
S31530004DA0D4F89C3000225A60D4F8942012F00205D0
S31530004DB00CD0032A00F2B28100232F2140F28D104D
S31530004DC01A46009332F046FAD4F8942022F00203C1
S31530004DD0032BC4F894301FD91A46002523F003015B
S31530004DE00B68D80705D48868032B00F0010088606B
S31530004DF0F4D8002D00F08B8122F0030151F8042FF6
S31530004E00032A09D922F0030002F00302036813F0E3
S31530004E10010308BF43600A60D4F88C2012F0020503
S31530004E200CD0032A00F2888100232F2140F28D1006
S31530004E301A46009332F00EFAD4F88C2022F0020390
S31530004E40032BC4F88C301FD91A46002523F00301F2
S31530004E500B68D80705D48868032B00F001008860FA
S31530004E60F4D8002D00F04C8122F0030151F8042FC4
S31530004E70032A09D922F0030002F00302036813F073
S31530004E80010308BF43600A6020464B4B40F8803B25
S31530004E901EF06AF9A26F12F002050BD0032A00F257
S31530004EA0448100232F2140F28D101A46009332F0B0
S31530004EB0D1F9A26F22F00203032BA3671FD91A463A
S31530004EC0002523F003010B68D80705D48868032B27
S31530004ED000F001008860F4D8002D00F00B8122F03C
S31530004EE0030151F8042F032A09D922F0030002F0F6
S31530004EF00302036813F0010308BF43600A60226EA1
S31530004F002E4B12F0020523600BD0032A00F22281C9
S31530004F1000232F2140F28D101A46009332F09AF971
S31530004F20226E22F00203032B23661FD91A46002570
S31530004F3023F003010B68D80705D48868032B00F0EB
S31530004F4001008860F4D8002D00F0CE8022F00301F5
S31530004F5051F8042F032A09D922F0030002F0030284
S31530004F60036813F0010308BF43600A60A26D12F0B4
S31530004F7002050BD0032A00F2E68000232F2140F2EF
S31530004F808D101A46009332F065F9A26D22F00203B5
S31530004F90032BA36527D91A46002523F003010B6896
S31530004FA0D8070DD48868032B00F001008860F4D848
S31530004FB006E000BFFC44053038440530EC4305308C
S31530004FC0002D00F08B8022F0030151F8042F032AC4
S31530004FD009D922F0030002F00302036813F001033B
S31530004FE008BF43600A60A26C12F002050BD0032A98
S31530004FF000F2BD8000232F2140F28D101A46009317
S3153000500032F028F9A26C22F00203032BA3641ED9D6
S315300050101A46002523F003010B68D80705D48868A3
S31530005020032B00F001008860F4D8002D50D022F018
S31530005030030151F8042F032A09D922F0030002F0A4
S315300050400302036813F0010308BF43600A60A26BD2
S3153000505012F002050BD0032A00F2838000232F21A1
S3153000506040F28D101A46009332F0F4F8A26B22F01B
S315300050700203032BA3631DD91A46002523F003012F
S315300050800B68D80705D48868032B00F001008860C8
S31530005090F4D8BDB122F0030151F8042F032A09D9FF
S315300050A022F0030002F00302036813F0010308BF85
S315300050B043600A60314B204623601AF0C5FC204617
S315300050C003B030BD22F0020204F13801A263E5E7F5
S315300050D022F0020204F14801A264ACE722F0020297
S315300050E004F15801A26572E722F0020204F1600170
S315300050F022662FE722F0020204F17801A267F2E677
S3153000510022F0020204F18C01C4F88C20B0E622F0C1
S31530005110020204F19401C4F8942071E622F00303EC
S315300051205B68032B3FF65AAE76E622F003035B68E4
S31530005130032B3FF6C6AEE2E622F003035B68032B91
S315300051403FF684AEA0E622F003035B68032B3FF6FE
S3153000515024AF48E722F003035B68032B3FF6E8AE43
S3153000516004E722F003035B68032B87D8A2E722F01B
S3153000517003035B68032B3FF64DAF68E7A04305306A
S31530005180A14AD0F8A43030B5044683B002607BB172
S3153000519000F1A4025968914208D000237E215B2099
S315300051A01A46009332F056F8D4F8A43000225A60EA
S315300051B0D4F8A0307BB104F1A0025968914208D0EE
S315300051C000237E215B201A46009332F043F8D4F850
S315300051D0A03000225A60D4F89C307BB104F19C0296
S315300051E05968914208D000237E215B201A460093ED
S315300051F032F030F8D4F89C3000225A60D4F894203B
S3153000520012F002050CD0032A00F2B68100232F21BA
S3153000521040F28D101A46009332F01CF8D4F89420E0
S3153000522022F00203032BC4F894301FD91A46002506
S3153000523023F003010B68D80705D48868032B00F0E8
S3153000524001008860F4D8002D00F08F8122F0030130
S3153000525051F8042F032A09D922F0030002F0030281
S31530005260036813F0010308BF43600A60D4F88C204A
S3153000527012F002050CD0032A00F28C8100232F2174
S3153000528040F28D101A46009331F0E4FFD4F88C20AA
S3153000529022F00203032BC4F88C301FD91A4600259E
S315300052A023F003010B68D80705D48868032B00F078
S315300052B001008860F4D8002D00F0508122F00301FF
S315300052C051F8042F032A09D922F0030002F0030211
S315300052D0036813F0010308BF43600A6020464B4B56
S315300052E040F8803B1DF040FFA26F12F002050BD054
S315300052F0032A00F2488100232F2140F28D101A46EE
S31530005300009331F0A7FFA26F22F00203032BA367AD
S315300053101FD91A46002523F003010B68D80705D498
S315300053208868032B00F001008860F4D8002D00F067
S315300053300F8122F0030151F8042F032A09D922F0F4
S31530005340030002F00302036813F0010308BF436051
S315300053500A60226E2E4B12F0020523600BD0032A10
S3153000536000F2268100232F2140F28D101A46009339
S3153000537031F070FF226E22F00203032B23661FD911
S315300053801A46002523F003010B68D80705D4886830
S31530005390032B00F001008860F4D8002D00F0D28095
S315300053A022F0030151F8042F032A09D922F0030011
S315300053B002F00302036813F0010308BF43600A607A
S315300053C0A26D12F002050BD0032A00F2EA80002308
S315300053D02F2140F28D101A46009331F03BFFA26D1B
S315300053E022F00203032BA36527D91A46002523F0A2
S315300053F003010B68D8070DD48868032B00F0010031
S315300054008860F4D806E000BFFC44053038440530E7
S31530005410EC430530002D00F08F8022F0030151F867
S31530005420042F032A09D922F0030002F0030203688D
S3153000543013F0010308BF43600A60A26C12F0020544
S315300054400BD0032A00F2C18000232F2140F28D10A9
S315300054501A46009331F0FEFEA26C22F00203032BB3
S31530005460A3641ED91A46002523F003010B68D8071A
S3153000547005D48868032B00F001008860F4D8002D2D
S3153000548054D022F0030151F8042F032A09D922F00F
S31530005490030002F00302036813F0010308BF436000
S315300054A00A60A26B12F002050BD0032A00F2878045
S315300054B000232F2140F28D101A46009331F0CAFE98
S315300054C0A26B22F00203032BA3631DD91A460025D3
S315300054D023F003010B68D80705D48868032B00F046
S315300054E001008860F4D8DDB122F0030151F8042FB1
S315300054F0032A09D922F0030002F00302036813F0ED
S31530005500010308BF43600A60334B204623601AF01C
S315300055109BFA2046A8214BF05FF9204603B030BDF8
S3153000552022F0020204F13801A263E1E722F002021E
S3153000553004F14801A264A8E722F0020204F15801FE
S31530005540A2656EE722F0020204F1600122662BE7C3
S3153000555022F0020204F17801A267EEE622F002029E
S3153000556004F18C01C4F88C20ACE622F0020204F17E
S315300055709401C4F894206DE622F003035B68032B94
S315300055803FF656AE72E622F003035B68032B3FF616
S31530005590C2AEDEE622F003035B68032B3FF680AE35
S315300055A09CE622F003035B68032B3FF620AF44E70B
S315300055B022F003035B68032B3FF6E4AE00E722F0EC
S315300055C003035B68032B83D89EE722F003035B68F3
S315300055D0032B3FF649AF64E7A0430530026830B588
S315300055E0054612F0020083B00AD0032A33D80023CE
S315300055F02F2140F28D101A46009331F02BFE2A6887
S3153000560022F00203032B1A462B601FD9002023F009
S3153000561003010B68DC0705D48C68032B04F0010406
S315300056208C60F4D890B122F0030151F8042F032A8C
S3153000563009D922F0030002F00302036813F00103D4
S3153000564008BF43600A60284603B030BD22F002022C
S3153000565029462A60EBE722F003035B68032BD6D892
S31530005660F1E700BF2DE9F041B84B044682B0D0F8DF
S31530005670E006236004F2D4651DF0CCFDD4F8D836AC
S315300056805BB11B6823F003039D4206D000238021C3
S315300056906E201A46009331F0DDFDD4F8D426032A65
S315300056A040F2838422F003010B6813F0010340F0CB
S315300056B07C844868854200F022851A4680216F2016
S315300056C0009331F0C7FDD4F8D426032A40F26D8416
S315300056D022F00301D4F8D8360868C60700D44B60E8
S315300056E033B1196822F0030201F003011143196046
S315300056F0D4F8C80604F2BC651DF08CFDD4F8C0366B
S315300057005BB11B6823F003039D4206D00023802142
S315300057106E201A46009331F09DFDD4F8BC26032A3C
S3153000572040F2478422F003010B6813F0010340F086
S3153000573040844868854200F0D9841A4680216F201B
S31530005740009331F087FDD4F8BC26032A40F2318429
S3153000575022F00301D4F8C0360868C50740F1C88482
S3153000576033B1196822F0030201F0030111431960C5
S31530005770D4F8A43604F5D465002B00F0A4841A6856
S31530005780954200F01A840023802134201A46009373
S3153000579031F060FDD4F8A026002A00F0B8845368B2
S315300057A09D420BD00023812135201A46009331F0DB
S315300057B051FDD4F8A026002A00F0A984D4F8A436E6
S315300057C05360D4F8A43603B11A60D4F89C0604F5B5
S315300057D0D26504F5CF661DF01DFDD4F890061DF098
S315300057E019FDB5423DD0002755F8083C0C3D002B3D
S315300057F000F03A841A6822F00302954200F047849A
S31530005800002380216E2000971A4631F023FD2A6846
S31530005810032A18D922F003010B6813F0010312D1C1
S315300058204868854200F011841A4680216F20009323
S3153000583031F010FD2A68032A05D922F003010B68DE
S31530005840D80740F102846B68002B00F00484196895
S3153000585022F00302B54201F0030141EA0201196068
S31530005860C2D104F26C6504F25466D4F86C061DF0AD
S31530005870D1FCB5423DD0002755F8083C0C3D002BF5
S3153000588000F0DC831A6822F00302954200F0FA83B6
S31530005890002380216E2000971A4631F0DBFC2A68FF
S315300058A0032A18D922F003010B6813F0010312D131
S315300058B04868854200F0B3831A4680216F200093F2
S315300058C031F0C8FC2A68032A05D922F003010B6897
S315300058D0DB0740F1A4836B68002B00F0A6831968C0
S315300058E022F00302B54201F0030141EA02011960D8
S315300058F0C2D1D4F83C3604F5C765002B00F0EA83F4
S315300059001A68954200F0D9830023802134201A4644
S31530005910009331F09FFCD4F83826002A00F0FA8341
S3153000592053689D420BD00023812135201A460093BF
S3153000593031F090FCD4F83826002A00F0EB83D4F806
S315300059403C365360D4F83C361BB101E0484505304F
S315300059501A6004F2346504F21C66D4F834061DF07D
S3153000596059FCB5423DD0002755F8083C0C3D002B7C
S3153000597000F04E831A6822F00302954200F09283BB
S31530005980002380216E2000971A4631F063FC2A6886
S31530005990032A18D922F003010B6813F0010312D140
S315300059A04868854200F025831A4680216F2000938F
S315300059B031F050FC2A68032A05D922F003010B681E
S315300059C0D80740F116836B68002B00F018831968EE
S315300059D022F00302B54201F0030141EA02011960E7
S315300059E0C2D104F5C26504F5BF66D4F810061DF0C1
S315300059F011FCB5423DD0002755F8083C0C3D002B34
S31530005A0000F0F0821A6822F00302954200F04583D6
S31530005A10002380216E2000971A4631F01BFC2A683D
S31530005A20032A18D922F003010B6813F0010312D1AF
S31530005A304868854200F0C7821A4680216F2000935D
S31530005A4031F008FC2A68032A05D922F003010B68D5
S31530005A50DB0740F1B8826B68002B00F0BA82196818
S31530005A6022F00302B54201F0030141EA0201196056
S31530005A70C2D1C44A04F59365D4F8DC3504F5BB6667
S31530005A80C4F89824002B00F02B831A68964200F055
S31530005A900E830023802134201A46009331F0DAFB3E
S31530005AA0D4F8D825002A00F0378353689E420BD0AD
S31530005AB00023812135201A46009331F0CBFBD4F8F0
S31530005AC0D825002A00F02883D4F8DC355360D4F882
S31530005AD0DC3503B11A60AC4F04F5B068D4F8C43580
S31530005AE004F5B866C4F880755BB11B6823F0030310
S31530005AF09E4206D0002380216E201A46009331F054
S31530005B00A9FBD4F8C025032A40F2B68222F003015D
S31530005B100B6813F0010340F0AF824868864200F00C
S31530005B20EA821A4680216F20009331F093FBD4F835
S31530005B30C025032A40F2A08222F00301D4F8C435EE
S31530005B400868C60740F1D98233B1196822F00302DA
S31530005B5001F003011143196004F2B4501DF004FB47
S31530005B60D4F8B0357BB104F5B6625968914208D0A5
S31530005B7000237E215B201A46009331F06BFBD4F86C
S31530005B80B03500225A6004F5B560804EFFF726FD29
S31530005B9004F5B460FFF722FD04F5B360FFF71EFD90
S31530005BA04046C4F880651DF08BFB04F5AE60FFF708
S31530005BB015FD04F5AC60FFF711FD04F5AA60FFF79B
S31530005BC00DFD04F5A960FFF709FDD4F844357BB126
S31530005BD004F244525968914208D000237E215B205A
S31530005BE01A46009331F036FBD4F8443500225A6019
S31530005BF0D4F840357BB104F5A8625968914208D093
S31530005C0000237E215B201A46009331F023FBD4F823
S31530005C10403500225A60D4F83C357BB104F23C5210
S31530005C205968914208D000237E215B201A460093A2
S31530005C3031F010FBD4F83C3500225A60D4F83835B0
S31530005C407BB104F5A7625968914208D000237E21C2
S31530005C505B201A46009331F0FDFAD4F8383500222D
S31530005C605A60D4F834357BB104F2345259689142D3
S31530005C7008D000237E215B201A46009331F0EAFAE1
S31530005C80D4F8343500225A60D4F830357BB104F577
S31530005C90A6625968914208D000237E215B201A46BD
S31530005CA0009331F0D7FAD4F8303500225A60384BA9
S31530005CB004F2245004F55278C4F8983422F0B8FB34
S31530005CC028461FF08FFC334B04F5916004F562755E
S31530005CD0C4F8A0331DF048FAD4F8740428F08EFCCA
S31530005CE004F58D6022F0A4FB04F58C60FFF776FC9A
S31530005CF004F58B60FFF772FC04F23C401EF0FCFDAD
S31530005D0004F58760FFF76AFC04F22C40FFF766FC67
S31530005D1004F568701FF066FCD4F88C33C4F8487309
S31530005D205BB11B6823F003039D4206D0002380211C
S31530005D306E201A46009331F08DFAD4F88823032A60
S31530005D4040F29D8122F003010B6813F0010340F00D
S31530005D5096814868854200F0D6811A4680216F20A8
S31530005D60009331F077FAD4F88823032A40F28781FA
S31530005D7022F00301D4F88C330868C00740F1C5819E
S31530005D800AE000BF0C800530F87F0530E844053066
S31530005D90B87C0530347F053033B1196822F0030200
S31530005DA001F003011143196004F55F701DF0DCF951
S31530005DB0D4F878337BB104F55E725968914208D0D5
S31530005DC000237E215B201A46009331F043FAD4F843
S31530005DD0783300225A6004F55C7004F50C75FFF7D1
S31530005DE0FDFB04F55A70FFF7F9FB04F55870FFF721
S31530005DF0F5FB4046C4F8486304F505761DF060FAB5
S31530005E00C64B04F54E70C4F830321DF0ADF9C44BB4
S31530005E1004F54A70C4F8F032FFF7E0FBC14B04F5E5
S31530005E204670C4F8F032FFF7D9FBBF4B04F5427029
S31530005E30C4F8F032FFF7D2FBBC4B04F53E70C4F821
S31530005E40F0321DF091F904F53C701DF02BFF04F58E
S31530005E503970FFF7C3FB04F53770FFF7BFFB04F566
S31530005E603570FFF7BBFB04F5327022F0E1FA04F52A
S31530005E70307018F085FE04F52F70FFF7AFFB28461B
S31530005E801FF0B0FBAA4AD4F82C32C4F888217BB173
S31530005E9004F50B725968914208D000237E215B20AD
S31530005EA01A46009331F0D6F9D4F82C3200225A60D3
S31530005EB0D4F828327BB104F50A725968914208D079
S31530005EC000237E215B201A46009331F0C3F9D4F8C3
S31530005ED0283200225A60D4F824327BB104F5097294
S31530005EE05968914208D000237E215B201A460093E0
S31530005EF031F0B0F9D4F8243200225A6004F5077034
S31530005F00FFF76CFB3046FFF769FB8A4B04F50270EE
S31530005F10C4F888311DF028F904F50070FFF75EFBF0
S31530005F20854B04F5F470C4F88831FFF757FB04F558
S31530005F30F070FFF753FB04F5E870FFF74FFB04F5FD
S31530005F40E070FFF74BFB7D4B04F5C470C4F8883125
S31530005F5019F07AFD04F5B6701EF0CEFC04F5B47077
S31530005F60FFF73CFB04F1F0001EF0F2F804F1E40018
S31530005F701DF0FAF804F1D8001DF0F6F804F1D0005F
S31530005F80FFF72CFB04F1C000FFF728FB04F1B40047
S31530005F90FFF724FB04F1AC00FFF720FB20461FF08F
S31530005FA0D7FB204602B0BDE8F081D4F8D836FFF7EB
S31530005FB097BBD4F8C036FFF7D3BBD4F8A026002A57
S31530005FC07FF4EDAB00E46B684B606B68002B7FF4BD
S31530005FD046ADB5423FF44DAD55F8083C0C3D002B6F
S31530005FE07FF410AD2A68032A3FF61CADB542F3D1D3
S31530005FF03FE56B684B606B68002B7FF4E8ACB542CD
S315300060003FF4EFAC55F8083C0C3D002B7FF4B2ACB6
S315300060102A68032A3FF6BEACB542F3D1E1E46B6899
S315300060204B606B68002B7FF45AACB5423FF461ACE1
S3153000603055F8083C0C3D002B7FF424AC2A68032A23
S315300060403FF630ACB542F3D153E46B684B606B68C6
S31530006050002B7FF4FCABB5423FF403AC55F8083C5B
S315300060600C3D002B7FF4C6AB2A68032A3FF6D2AB31
S31530006070B542F3D1FFF7F5BBD4F8C43564E5D4F8AF
S315300060808C3389E62A68032A3FF60CAC27E42A6863
S31530006090032A3FF6BFABFFF7DABB2A68032A3FF67F
S315300060A0C1ACDCE42A68032A3FF674AC8FE4D4F83A
S315300060B0D825002A7FF4F9AC0CE5D4F83826002A26
S315300060C07FF42EAC44E4D4F8A026002A7FF467ABE4
S315300060D0FFF77BBBD4F83826002A7FF421AC38E4AE
S315300060E0D4F8D825002A7FF4E0ACF4E4D4F8C036EE
S315300060F04B60FFF735BBD4F8C4354B6024E5D4F894
S31530006100D836FFF7ECBAD4F88C334B6044E600222D
S31530006110FFF757BB002215E40022D8E46C80053027
S31530006120CC440530B44405309C44053084440530B5
S31530006130FC44053038440530EC430530A043053087
S3153000614010B50446FFF78EFA4FF4DD6120464AF06B
S3153000615043FB204610BD00BF2DE9F04306680446D8
S3153000616089B00D46B00776D526F003070397002F82
S3153000617000F09B800623DFF8C48104978DF8143035
S3153000618003AB06940793D8F800300133B3F57A7F22
S31530006190C8F8003000F390800DF110093B6848468E
S315300061A0984700230646C8F800302368990754D527
S315300061B023F00307BD427CD0002D54D1032B17D9D1
S315300061C001230497C8F800300323CDE906458DF83E
S315300061D014303B68484698470023C8F800300028FA
S315300061E067D123689A0740F19A80032B00F2A0808A
S315300061F000232F2140F28D10A0461A46009331F02D
S3153000620029F8236823F0020323606B68032B7DD8BB
S31530006210D8F80070032F6F6056D8AB076DD123685E
S3153000622003F001032B4343F00203032B236008D80A
S31530006230002394214FF49A701A46009331F00AF8ED
S31530006240236843F0010331462046236009B0BDE898
S31530006250F0431EF025B906F0010655B30027DFF8E6
S31530006260DC800DF11009D8F80020052304950132A1
S315300062708DF8143000230694B2F57A7FC8F80020E2
S3153000628007934EDC2B68484698470023C8F8003001
S3153000629078B9002FA5D0032304978DF81430012345
S315300062A0CDE90645C8F8003093E706F00106002927
S315300062B0D5D109B0BDE8F08300231E21FC201A4653
S315300062C0009330F0C7FF67E727F003073B6813F00A
S315300062D001030AD17A68904505D080211A46009389
S315300062E0084630F0B7FF2B1D7B60D8F8003003F03E
S315300062F00303C8F80030AB0791D000232E214FF4AA
S31530006300C2701A46009330F0A5FF88E70023932128
S315300063104FF4BB701A46009330F09CFF78E7A046E6
S3153000632070E71A461E21FC20009330F093FFA9E750
S3153000633023F0030303F1040867E700BF183A00802F
S315300063402DE9F0430446806C89B00D46870704F189
S3153000635048063FD520F003070397002F3AD006238F
S31530006360DFF8C08004978DF8143003AB0696079398
S31530006370D8F800300133B3F57A7FC8F800302CDC1A
S315300063803B6804A898470023C8F8003020B1A36CB6
S31530006390990701D5032B1AD8676B3B689A070FD537
S315300063A0032B0DD923F0030803F00103D8F804209A
S315300063B022F003021A433A60D8F80420032A14D88C
S315300063C029463046FFF7C8FE012384F8703009B0FD
S315300063D0BDE8F08300F00100D8E700231E21FC2041
S315300063E01A46009330F036FFCAE722F00309D9F88F
S315300063F0003013F001030FD108F10401D9F804007D
S31530006400884207D080211A460093084630F022FF92
S31530006410D8F80420C9F8047002F00302C8F8042042
S31530006420CEE700BF183A008090F87030F0B50446D9
S3153000643087B023B14B1E012B30D9032945D0256EA9
S3153000644004F16006AA071ED5032D1CD9EB071AD511
S3153000645004F16402414F25F00305002305923A68A2
S315300064600496013202958DF80C30B2F57A7F3A6097
S3153000647054DC2B6802A8984700233B6018B1236E82
S3153000648023F00103236630461FF0B0F9636E002017
S315300064909FED330A07B0BDE8F0401847836C13F020
S315300064A002050DD0032B23F0030509D96A6803F0E2
S315300064B0010322F003021A4382646A68032A34D83D
S315300064C02946606BFFF748FEB9E7836C9907B6D566
S315300064D0032BB4D923F0030503F001036A6822F0D5
S315300064E003021A4382646A68032AA8D922F0030693
S315300064F0336813F001030DD1291D7068884206D028
S3153000650080211A460093084630F0A4FE6A6804F1EA
S315300065104803736002F003026A6090E71A461E2150
S31530006520FC20009330F096FEA3E722F00306336892
S3153000653013F001030DD1291D7068884206D08021E1
S315300065401A460093084630F085FE6A6804F148031F
S31530006550736002F003026A60B2E700BF183A008047
S315300065600000000010B582B004241CF093FE1CF02D
S3153000657099FE002300944FF400420C490C480193D5
S315300065800EF01EFF012804460BD00A4830F03EFBC1
S315300065904FF0200383F31188BFF36F8FBFF34F8F14
S315300065A0FEE70FF0CDF8204602B010BD704305303F
S315300065B0353300307C430530F0B5054687B00446A8
S315300065C055F8046BB2071CD5032E1AD9F30718D524
S315300065D0124F26F00306002304903A6802960132E1
S315300065E005958DF80C30B2F57A7F3A600FDC33685A
S315300065F002A8984700233B6018B1236823F00103B3
S31530006600236020461FF0F2F8284607B0F0BD1A4640
S315300066101E21FC20009330F01DFEE8E7183A00807A
S31530006620F0B5054687B0044655F8086BB2071CD559
S31530006630032E1AD9F30718D5124F26F00306002376
S3153000664004903A680296013205958DF80C30B2F511
S315300066507A7F3A600FDC336802A8984700233B60A4
S3153000666018B1236823F00103236020461FF0BEF8DB
S31530006670284607B0F0BD1A461E21FC20009330F0A4
S31530006680E9FDE8E7183A00802DE9F04104460E4668
S3153000669015462DED068B88B0002A00F0CA80236996
S315300066A004F110089A0795ED008B04D5032B02D917
S315300066B0DF0700F18A80404604F148081FF096F85B
S315300066C0237D1BB1636BB34200F0BB80A06C8607A1
S315300066D01FD520F003050395DDB10623A24F04959F
S315300066E08DF8143003ABCDF8188007933B6801332F
S315300066F0B3F57A7F3B6000F387802B6804A8984710
S3153000670000233B6048B1012008B0BDEC068BBDE8E4
S31530006710F08100F001000028F5D1A16C8D0701F061
S31530006720020394ED149B77D5032975D9B4EE498BC2
S3153000673021F00102A264F1EE10FA80F105811146D2
S31530006740B0EEC97B9FED846BB4EE467BF1EE10FA6A
S3153000675017DCB0EEC87BB4EE467BF1EE10FA10DCF7
S31530006760B5EEC09BF1EE10FAB5EEC08B4CBF0120F2
S315300067700020F1EE10FA4CBF01220022904200F0C8
S31530006780B58084ED148B002B00F0AD8021F003052D
S315300067900395002D00F0A780734F03AB06220495B6
S315300067A0CDE906833B688DF814200133B3F57A7F43
S315300067B03B6000F3C1802B6804A89847002301464C
S315300067C03B6040461DF06CFE9DE7674F04F11402B6
S315300067D023F00305002307923A68CDF8188001327A
S315300067E004958DF81430B2F57A7F3A601ADC2B684E
S315300067F004A8984700233B6000283FF45CAF236928
S3153000680023F00103236156E700231E21FC201A469C
S31530006810009330F01FFD70E7B4EE498BF1EE10FABD
S315300068208ED7AEE71A461E21FC20009330F012FDBB
S31530006830DDE7134608214FF4CF70009230F00AFDA1
S315300068402DE74046FFF7ECFE90ED009BB4EE498B0A
S31530006850F1EE10FABFF53AAFB0EEC97B9FED3E6B65
S31530006860B4EE467BF1EE10FA3FF730AFB0EEC87BB0
S31530006870B4EE467BF1EE10FA3FF728AFB5EEC09B8B
S31530006880F1EE10FAB5EEC08B4CBF01220022F1EECC
S3153000689010FA4CBF012300239A427FF417AF39EE2A
S315300068A0480B4BF019FDB0EE407BB0EE490BB0EE25
S315300068B0479B4BF011FDB0EE40ABB0EE480B4BF0C2
S315300068C00BFDB0EE401BB0EE4A0B4BF0C3FC9FED18
S315300068D0247B20EE077BB4EEC79BF1EE10FA3FF631
S315300068E0F5AE002010E701F001016AE739EE480BFA
S315300068F04BF0F2FCB0EE407BB0EE490BB0EE479B6E
S315300069004BF0EAFCB0EE40ABB0EE480B4BF0E4FC9B
S31530006910B0EE401BB0EE4A0B4BF09CFC9FED107B6B
S3153000692020EE077BB4EEC79BF1EE10FA7FF6EBAEA6
S31530006930A16C01F0020324E700231E21FC201A4635
S31530006940009330F087FC36E721F0030584ED148B95
S31530006950039521E7AFF30080FFFFFFFFFFFFEF7FD7
S31530006960BBBDD7D9DF7CDB3D183A00800000000084
S315300069702DE9F041866A044600F128070D46B00736
S315300069802DED088B86B004D5032E02D9F10700F120
S31530006990D98038461EF02AFF94ED0C8BB4EE488B26
S315300069A0F1EE10FA0ED6B0EEC87B9FEDBB6BB4EEAF
S315300069B0467BF1EE10FA05DCB5EEC08BF1EE10FA3F
S315300069C040F1E380A66AB20704D5032E02D9F30755
S315300069D000F1C38138461EF009FFA66A94ED0C0B10
S315300069E0B007F7EEC09B21D5032E1FD9F1071DD571
S315300069F0DFF8C08204F1300226F003060023059248
S31530006A00D8F800200497013202968DF80C30B2F592
S31530006A107A7FC8F8002000F33082336802A898479E
S31530006A200023C8F80030002840F01B82B0EEE98A17
S31530006A30DFED9F8A38461EF0D9FEB4EE688A94EDB3
S31530006A400C0BF1EE10FAB7EEC09B05DCF5EEC09AF2
S31530006A50F1EE10FA40F1328195F8243095ED067A50
S31530006A60D5ED077A012B29EE877A69EE277A40F23F
S31530006A70038195ED006A032BD5ED046A29EE866A0B
S31530006A8069EE266A00F28B8185ED006A85ED067A1D
S31530006A90C5ED046AC5ED077ADFED857AB4EE678A0F
S31530006AA0F1EE10FA00F3D481B0EEC97AB4EE677A1B
S31530006AB0F1EE10FA10DCF5EEC09AF1EE10FAB5EE02
S31530006AC0C09A4CBF01220022F1EE10FA4CBF0123CE
S31530006AD000239A4200F0D88195F82430032293425D
S31530006AE0A66904F1180738BF1346B20785F8243073
S31530006AF074D438461EF07AFE94ED088BB4EE488B8B
S31530006B00F1EE10FA0ED6B0EEC87B9FED636BB4EEA5
S31530006B10467BF1EE10FA05DCB5EEC08BF1EE10FADD
S31530006B2040F183803846FFF77BFD0346284693EDD8
S31530006B30000BB7EEC00B06B0BDEC088BBDE8F041DC
S31530006B402FF0C6BBDFF86C8104F1300226F0030665
S31530006B5000230592D8F800200497013202968DF86A
S31530006B600C30B2F57A7FC8F8002000F38E80336897
S31530006B7002A898470023C8F8003000283FF409AF30
S31530006B80A36A23F00103A36203E7B7EE00AB38EE46
S31530006B904A0B4BF0A1FBB0EE407BB0EE480BB0EEAB
S31530006BA0478B4BF099FBB0EE409BB0EE4A0B4BF067
S31530006BB093FBB0EE401BB0EE490B4BF04BFB9FED19
S31530006BC0387B20EE077BB4EEC78BF1EE10FA3FF63A
S31530006BD0F9AEA66904F11807B2078AD5032E88D90B
S31530006BE0F30786D5DFF8CC8004F1200226F00306C1
S31530006BF000230592D8F800200497013202968DF8CA
S31530006C000C30B2F57A7FC8F8002000F32381336860
S31530006C1002A898470023C8F8003000283FF469AF2F
S31530006C20A36923F00103A36163E7B0EE480B4BF091
S31530006C3053FBB0EE407BB0EE480BB0EE478B4BF0DB
S31530006C404BFBB0EE409B9FED180B4BF045FBB0EE87
S31530006C50401BB0EE490B4BF0FDFA9FED117B20EE59
S31530006C60077BB4EEC78BF1EE10FA3FF65BAF06B09A
S31530006C70BDEC088BBDE8F081C5ED009A85ED067A4E
S31530006C8085ED049AC5ED077A06E71A461E21FC20E3
S31530006C90009330F0DFFA6AE7FFFFFFFFFFFFEF7F79
S31530006CA0BBBDD7D9DF7CDB3D000000000000000013
S31530006CB0FFFF7F7F183A008017B7D138B7EE00BA9A
S31530006CC05FED03BA39EECB0A4BF03CFBB0EE40AA8F
S31530006CD0B0EE690A4BF036FBF0EE40AAB0EE4B0A46
S31530006CE04BF030FBF0EE400AB0EE6A0A4BF0F0FBA8
S31530006CF060EE2B7AB4EEE7AAF1EE10FA3FF6ACAEC0
S31530006D00F0EEC97AF4EE687AF1EE10FA3FF7A4AEF7
S31530006D10B5EEC09AF1EE10FA3FF59EAE39EE4B0A5B
S31530006D204BF010FBF0EE408AB0EE490A4BF00AFB0E
S31530006D30B0EE40AAB0EE4B0A4BF004FBF0EE400A40
S31530006D40B0EE4A0A4BF0C4FB60EE2B7AF4EEE78ADB
S31530006D50F1EE10FA3FF680AE3BE7DFF8848104F1BE
S31530006D60300226F0030600230592D8F80020049757
S31530006D70013202968DF80C30B2F57A7FC8F80020D1
S31530006D8074DC336802A898470023C8F8003000281E
S31530006D903FF420AEA36A23F00103A3621AE695ED11
S31530006DA0035A042BD5ED015A85ED006A25EE296A82
S31530006DB085ED067A25EE897AC5ED046AC5ED077A42
S31530006DC085ED036A85ED017A7FF466AEDFED427AB2
S31530006DD0B4EE678AF1EE10FA36DCB0EEC97AB4EE6C
S31530006DE0677AF1EE10FA2FDCF5EEC09AF1EE10FA72
S31530006DF0B5EEC09A4CBF01220022F1EE10FA4CBF1C
S31530006E00012300239A421FD139EEC90A4BF09AFA70
S31530006E10B0EE408AB0EE690A4BF094FAF0EE408A52
S31530006E20B0EE490A4BF08EFAF0EE400AB0EE680A40
S31530006E304BF04EFBDFED297A60EE277AB4EEE78A27
S31530006E40F1EE10FA7FF637AE062385F82430C0E629
S31530006E50032244E61A461E21FC20009330F0FAF94C
S31530006E60D5E6A36A23F00103A362DFE51A461E21A5
S31530006E70FC20009330F0EEF983E71A461E21FC2001
S31530006E80009330F0E7F9C8E539EEC90A4BF05AFA03
S31530006E90B0EE408AB0EE690A4BF054FAF0EE408A12
S31530006EA0B0EE490A4BF04EFAF0EE400AB0EE680A00
S31530006EB04BF00EFBDFED097A95F8243060EE277A39
S31530006EC0B4EEE78AF1EE10FA94BF01220022C2F145
S31530006ED00302D2B203E600BFFFFF7F7F17B7D13878
S31530006EE0183A0080000000002DE9F0432DED0C8BA0
S31530006EF087B005460C461EF083FA0646002800F099
S31530006F0089832B68CC4A1B69934240F01683AF6B5A
S31530006F1005F13809BA0724D5032F22D9FB0720D526
S31530006F20DFF8248327F00307002305F13C01D8F866
S31530006F300020CDF81090013202978DF80C30B2F562
S31530006F407A7FC8F80020059100F3FF833B6802A8DA
S31530006F5098470023C8F8003018B1AB6B23F0010313
S31530006F60AB6348461EF042FC95F83C70082F00F2A1
S31530006F70D9820123BB4013F4927F40F0188113F07D
S31530006F80920F00F0DE8206F11800FFF715FB90ED48
S31530006F90008ABAEEEF8AF1EE489AB0EEC8AA052F0B
S31530006FA000F21481022F00F2EA819FEDA49ADFED00
S31530006FB0A48ADFEDA4AAB4EE6AAAF1EE10FA05DCD3
S31530006FC0B5EEC08AF1EE10FA40F3C28294F824305E
S31530006FD0D4ED067A062B94ED077A00F20281012B66
S31530006FE077EEC87A37EE687A38BF0123C4ED067A71
S31530006FF084ED077A84F82430AE6A05F12807B007A5
S3153000700004D5032E02D9F10700F1118238461EF05D
S31530007010EDFB95ED0C9BB4EE499BF1EE10FA0ED6D6
S31530007020B0EEC97B9FED826BB4EE467BF1EE10FA83
S3153000703005DCB5EEC09BF1EE10FA40F1078138461B
S315300070409FED80BAFFF7ECFA0346384693ED000B16
S31530007050F7EEC0ABFFF7E4FA90ED000BB0EEEA9A2C
S31530007060F7EEC09BB4EE4B9AF1EE10FA05DCF5EE76
S31530007070C0AAF1EE10FA40F1068294F8243094ED6D
S31530007080067AD4ED077A012B2AEE877A69EEA77A4B
S3153000709040F2F08194ED006A032BD4ED046A2AEEB7
S315300070A0866A69EEA66A00F2E78284ED006A84EDAC
S315300070B0067AC4ED046AC4ED077ADFED627AB4EE7F
S315300070C0679AF1EE10FA00F33083B0EEE97AB4EE57
S315300070D0677AF1EE10FA10DCF5EEC0AAF1EE10FA8E
S315300070E0F5EEC09A4CBF01220022F1EE10FA4CBFE9
S315300070F0012300239A4200F0308394F8243003228F
S315300071009342AE6905F1180738BF1346B20784F8C3
S31530007110243000F1C58038461EF068FB95ED089B9B
S31530007120B4EE499BF1EE10FA0ED6B0EEC97B9FED68
S31530007130406BB4EE467BF1EE10FA05DCB5EEC09B43
S31530007140F1EE10FA40F1FA803846FFF769FA034655
S31530007150204693ED000BB7EEC00B2FF0B9F89FED3C
S31530007160399AB4EE49AAF1EE10FA05DCB5EEC08ACA
S31530007170F1EE10FA40F10E8194F82430D4ED067A0F
S31530007180062B94ED077A00F2B480012B78EE277A3D
S3153000719038EE877A38BF0123C4ED067A84ED077A54
S315300071A084F8243007B0BDEC0C8BBDE8F08306F1D3
S315300071B01800FFF701FA90ED008A052FB8EEC88A5D
S315300071C0F1EE489AB0EEC8AA7FF6ECAE06F1200092
S315300071D0FFF7F2F9D0ED008AF8EEE88AB1EE689A58
S315300071E0E7E6D4ED023A94ED005A94ED054AD4ED33
S315300071F0035AA3EEA95AD4ED084A94ED016AE4EE97
S31530007200295AD4ED046AE4EEA97AA3EE896AE4EE4B
S31530007210096AA4EE897A84ED005AC4ED035AC4EDA6
S31530007220067A84ED016AC4ED046AE1E6AFF30080C4
S31530007230FFFFFFFFFFFFEF7FD935003000000080F2
S3153000724000000000FFFF7F7F183A0080B7EE00CBCA
S3153000725039EE4C0B4BF040F8B0EE407BB0EE490BBC
S31530007260B0EE479B4BF038F8B0EE40BBB0EE4C0B6F
S315300072704BF032F8B0EE401BB0EE4B0B4AF0EAFF63
S315300072809FEDDB7B20EE077BB4EEC79BF1EE10FA69
S315300072903FF6D5AEAE6905F11807B2077FF53BAFBD
S315300072A0032E7FF638AFF3077FF535AFDFF850831F
S315300072B005F1200226F0030600230592D8F80020B7
S315300072C00497013202968DF80C30B2F57A7FC8F801
S315300072D0002000F33382336802A898470023C8F8A9
S315300072E0003000283FF417AFAB6923F00103AB61E0
S315300072F011E7D4ED023A94ED005A94ED054AD4EDF7
S31530007300035AA3EE885AD4ED084A94ED016AE4EEA6
S31530007310085AD4ED046AE4EE887AA3EEA86AE4EE5D
S31530007320286AA4EEA87A84ED005AC4ED035AC4ED57
S31530007330067A84ED016AC4ED046A2FE7B0EE490B94
S315300073404AF0CAFFB0EE40BBB0EE490B4AF0C4FF7C
S31530007350B0EE409B9FEDA80B4AF0BEFFB0EE401B4F
S31530007360B0EE490B4AF076FF9FEDA17B20EE077B0E
S31530007370B4EEC7BBF1EE10FA7FF6F1AEE4E606F1F5
S315300073802000FFF719F9D0ED008AFAEEEF8AB1EE58
S31530007390689A0EE6B0EE480ADFED9BAA4AF0D2FFB5
S315300073A0F0EE409AB0EE480A4AF0CCFFB0EE40AA72
S315300073B09FED960A4AF0C6FFF0EE400AB0EE4A0A52
S315300073C04BF086F860EE2A7AF4EEE79AF1EE10FA90
S315300073D03FF6D2AEF0EEE87AF4EE497AF1EE10FAF4
S315300073E03FF7CAAEF5EEC08AF1EE10FA3FF5C4AEFD
S315300073F0B0EE680A4AF0A6FFB0EE409AB0EE680AE0
S315300074004AF0A0FFF0EE409A9FED800A4AF09AFFCC
S31530007410F0EE400AB0EE690A4BF05AF860EE2A7A7E
S31530007420B4EEE79AF1EE10FA3FF6A6AEBAE6DFF81A
S31530007430D08105F1300226F0030600230592D8F8F4
S3153000744000200497013202968DF80C30B2F57A7F1F
S31530007450C8F8002000F36B81336802A898470023F0
S31530007460C8F8003000283FF4D1ADAB6A23F00103F1
S31530007470AB62CBE5C4ED00AA84ED067AC4ED049A7E
S31530007480C4ED077A19E6F7EE00CA9FED5FDA3AEEF9
S31530007490EC0A4AF057FFF0EE40BAB0EE6A0A4AF00C
S315300074A051FFB0EE40CAB0EE6C0A4AF04BFFF0EE38
S315300074B0400AB0EE4C0A4BF00BF860EE0D7AF4EE63
S315300074C0E7BAF1EE10FA3FF6D8ADF0EEE97AF4EE1F
S315300074D04B7AF1EE10FA3FF7D0ADF5EEC09AF1EEF9
S315300074E010FA3FF5CAAD39EEEC0A4AF02BFFB0EE92
